:020000040800F2
:1000000000000220D1260008DD0A0008DF0A0008EF
:10001000E10A0008E30A0008E50A00080000000001
:10002000000000000000000000000000E70A0008D7
:10003000E90A000800000000EB0A0008ED0A0008C9
:100040002127000821270008212700082127000870
:100050002127000821270008212700082127000860
:100060002127000821270008212700082127000850
:100070002127000821270008212700082127000840
:100080002127000821270008212700082127000830
:10009000212700082127000821270008F50A000869
:1000A0002127000821270008212700082127000810
:1000B0002127000821270008212700082127000800
:1000C00021270008212700082127000821270008F0
:1000D00021270008212700082127000821270008E0
:1000E00021270008212700082127000821270008D0
:1000F00021270008212700082127000821270008C0
:1001000021270008212700082127000821270008AF
:10011000212700082127000821270008212700089F
:10012000212700082127000821270008212700088F
:10013000212700080000000000000000212700081F
:10014000212700082127000821270008212700086F
:10015000212700082127000821270008212700085F
:10016000212700082127000821270008212700084F
:10017000212700082127000821270008000000008F
:10018000000000002127000800000000000000001F
:1001900021270008000000000000000021270008BF
:1001A00000000000000000000000000021270008FF
:1001B00021270008212700082127000821270008FF
:0401C00021270008EB
:1001D00010B5054C237833B9044B13B10448AFF381
:1001E00000800123237010BD740000200000000077
:1001F0005035000808B5034B1BB103490348AFF362
:10020000008008BD00000000780000205035000884
:1002100053B94AB9002908BF00281CBF4FF0FF316D
:100220004FF0FF3000F072B9ADF1080C6DE904CE6B
:1002300000F006F8DDF804E0DDE9022304B07047C1
:100240002DE9F047089E04468846002B4BD18A4290
:10025000154667D9B2FA82F24AB1C2F1200701FA13
:1002600002F320FA07F7954047EA030894404FEA63
:10027000154E230CB8FBFEF71FFA85FC0EFB178802
:1002800043EA084307FB0CF1994209D9EB1807F13F
:10029000FF3080F01B81994240F21881023F2B44CD
:1002A0005B1AA4B2B3FBFEF00EFB103344EA034426
:1002B00000FB0CFCA44509D92C1900F1FF3380F098
:1002C0000781A44540F2048102382C4440EA0740EB
:1002D000A4EB0C0400271EB1D4400023C6E9004360
:1002E0003946BDE8F0878B4209D9002E00F0EB803B
:1002F0000027C6E9000138463946BDE8F087B3FA61
:1003000083F7002F47D18B4202D3824200F2FA805A
:10031000841A61EB030301209846002EE0D0C6E961
:100320000048DDE702B9FFDEB2FA82F2002A40F0AF
:100330008F80491B4FEA154E1FFA85F80127B1FB44
:10034000FEFC230C0EFB1C1143EA014308FB0CF1DD
:10035000994207D9EB180CF1FF3002D2994200F212
:10036000CD808446591AA3B2B1FBFEF00EFB1014E7
:1003700043EA044408FB00F8A04507D92C1900F112
:10038000FF3302D2A04500F2B6801846A4EB080461
:1003900040EA0C409FE7C7F1200CBB4022FA0CFE5C
:1003A0004EEA030E01FA07F420FA0CF521FA0CF3D9
:1003B0004FEA1E482543B3FBF8F92C0C08FB193310
:1003C0001FFA8EFA44EA034309FB0AF49C4202FA3C
:1003D00007F200FA07F10BD91EEB030309F1FF3016
:1003E00080F087809C4240F28480A9F10209734426
:1003F0001B1BADB2B3FBF8F008FB103345EA034416
:1004000000FB0AFAA24508D91EEB040400F1FF33F1
:100410006BD2A24569D90238744440EA0940A0FB76
:100420000289A4EB0A044C45C2464B4654D351D032
:10043000002E69D0B1EB0A0564EB030404FA0CFC4E
:10044000FD40FC404CEA0505C6E90054002747E79B
:10045000C2F1200320FA03F7954001FA02F021FAD5
:1004600003F34FEA154E3843010CB3FBFEF71FFAB6
:1004700085F80EFB173341EA034107FB08F38B4273
:1004800004FA02F407D9691807F1FF3C2FD28B4216
:100490002DD9023F2944CB1A81B2B3FBFEF00EFBEB
:1004A000103341EA034100FB08F38B4207D9691876
:1004B00000F1FF3C17D28B4215D902382944C91AE2
:1004C00040EA07473BE73746304609E70746E7E695
:1004D0001846FBE64145ABD2B8EB020A69EB0E02C7
:1004E00001381346A4E76046E9E7184695E76746F2
:1004F000D1E781467CE702382C4447E7ACF1020C97
:100500002B442FE7384608E73746E9E6704700BF37
:10051000034613F8012B002AFBD1181A0138704743
:1005200001F0FF01102A2BDB10F0070F08D010F8A4
:10053000013B013A8B422DD010F0070F42B3F6D1A8
:10054000F0B441EA012141EA014122F007047FF0C1
:1005500000070023F0E80256083C85EA010586EA18
:10056000010685FA47F5A3FA87F586FA47F6A5FA54
:1005700087F68EB9EED1F0BC01F0FF0102F0070260
:1005800032B110F8013B013A83EA010313B1F8D10B
:100590000020704701387047002D06BF35460338EC
:1005A000073815F0010F07D1013015F4807F02BF25
:1005B000013015F4C03F0130F0BC0138704700BF76
:1005C00030B58BB0002405940694079408940994E0
:1005D0000194264B1A6B42F004021A631A6B02F064
:1005E00004020192019A02941A6B42F080021A638B
:1005F0001A6B02F080020292029A03941A6B42F084
:1006000001021A631A6B02F001020392039A049426
:100610001A6B42F002021A631B6B03F0020304938D
:10062000049B134D22462121284600F0FCFC4FF488
:10063000085305930F4B0693079405A90E4800F045
:100640000DFC21230593012306930794089405A923
:10065000284600F003FC22462146172000F0A6FBA6
:10066000172000F0D7FB0BB030BD00BF00380240B0
:1006700000000240000021100008024008B50B48AD
:100680000B4B03600B4B436000238360C3604FF44C
:100690008042026143618361C361036200F0F8FE3E
:1006A00000B908BD00F0F8F9FBE700BFA00000208A
:1006B00000540040A086010030B589B000230393A8
:1006C00004930593069307930268154B9A4201D051
:1006D00009B030BD00250195124C236B43F0020395
:1006E0002363236B03F002030193019B4FF44073D8
:1006F00003931223049301230593032306930423F6
:10070000079303A9084800F0A9FB0295236C43F462
:1007100000132364236C03F400130293029BD7E7B6
:1007200000540040003802400004024011230370CE
:10073000032343701B2383704423C3704C23037132
:10074000BF234371704711230370032343701B239E
:1007500083704423C37049230371BC2343717047E2
:1007600011230370042343701B2383705923C37028
:10077000482303714171002302E0C15C0A44013344
:10078000052BFADD8271704770B586B005461223DD
:100790008DF8103003238DF8113044238DF812307A
:1007A0008DF813108DF814200022134607E006A9D7
:1007B000194411F8081C0A44D2B20133DBB2042BED
:1007C000F5D98DF815200B4C0A230093062304AAB3
:1007D0002946204600F036FF06460123009303AA6F
:1007E0002946204600F0E8FF322000F0B9FA3046F2
:1007F00006B070BDA00000202DE9F84F05468B46DD
:1008000016461C460D9F3846FFF782FE82468146FB
:1008100000F10C0811232B701B23AB704123EB70EC
:100820004B232B7185F805B0AE71EC719DF8283023
:100830002B729DF82C306B729DF83030AB724323D5
:10084000EB720C24002609F10D03A3421EDDBB5DF3
:100850002B553846FFF75CFE0138864202D0013640
:100860000134F0E7631C0022EA54A31C1B22EA5463
:10087000E31C4122EA54231D4522EA5404F1050BEE
:100880009DF8383005F80B300AF11108A8F1020381
:100890006B7000231A4603E0E95C0A44D2B20133CC
:1008A0009845F9DC05F80820BDE8F88F00B583B05D
:1008B00002A941F8040D4FF6FF730122034801F02D
:1008C00095FE019803B05DF804FB00BF60010020B5
:1008D00030B595B03422002107A801F04DFF002467
:1008E0000294039404940594069400941C4B1A6C8F
:1008F00042F080521A641B6C03F080530093009BFB
:100900000194184A136823F4404343F4804313606E
:10091000136803F440430193019B022507950123CB
:100920000A9310230B930D950E9408230F936423C1
:10093000109311951295139507A801F009FB0F2349
:100940000293039504944FF4A05305934FF48053FE
:100950000693032102A801F063F915B030BD00BF72
:10096000003802400070004000B587B000F0CCF9BC
:10097000FFF7AEFFFFF724FEFFF780FE00F04EF911
:1009800040E04FF40051384800F046FB0028F8D012
:100990004FF6FF730322DE21344801F075F8344B23
:1009A0001870002835D1314CFF2500950623314AB7
:1009B000DE21204600F046FE2F4E009501233246F0
:1009C000DE21204600F0F8FE02224021DE20FFF763
:1009D000DBFE00951523294ADE21204600F032FE79
:1009E000009501233246DE21204600F0E5FE10E0AE
:1009F00001221146224800F016FB224B19782248AA
:100A000001F0C2FE4FF40051174800F005FB00282A
:100A1000B7D01848FFF78AFE1C48FFF794FE012163
:100A20001B48FFF79DFE092304931A4B0393CD2324
:100A30000293AB2301934E2300938C233222642133
:100A40000E48FFF7D9FE0F4B1B78DBB2CD2BCFD072
:100A50000C4B1B78DBB2AB2BCFD100220121084815
:100A600000F0E1FAC9E700BF00080240A000002042
:100A70005001002048010020F40000200001002067
:100A8000000002405201002084350008F8000020D8
:100A900040010020803500087047000000B583B099
:100AA000002100910C4B5A6C42F480425A645A6CFB
:100AB00002F480420092009A01911A6C42F0805236
:100AC0001A641B6C03F080530193019B072000F014
:100AD0005BF903B05DF804FB003802407047FEE7A5
:100AE000FEE7FEE7FEE770477047704708B500F085
:100AF00025F908BD30B583B04FF4007000F09AFAC4
:100B0000FF2300930423144ADE21144800F09AFDC9
:100B10004FF40071124800F07FFA28B1114B5A7956
:100B2000114B1A7003B030BD002201210F4800F0B4
:100B30007AFA0F4B1A68094CFF2500950123DE2134
:100B4000204600F039FE00950723064ADE212046A4
:100B500000F032FEE2E700BF00000020A00000200D
:100B60000008024054010020520100200000024011
:100B7000F400002070B50D461646002404E0AFF3E3
:100B80000080287001340135B442F8DB304670BD76
:100B900070B51646002405E04D1C0878FFF786FE68
:100BA00001342946B442F7DB304670BD08B5034630
:100BB0000B4A126842B10A4A106803446A469342DB
:100BC00006D8074A136008BD054A06491160F2E7D6
:100BD00001F0A8FD0C2303604FF0FF30F3E700BFE6
:100BE00090000020A80100204FF0FF3070474FF424
:100BF00000534B6000207047012070470020704771
:100C0000054BD3F8882042F47002C3F888204FF0D7
:100C100000629A60704700BF00ED00E008B50A4826
:100C20000A4B03604FF4E133436000238360C360E9
:100C300003610C2242618361C36101F0A8FC00B929
:100C400008BDFFF729FFFBE76001002000440040DA
:100C500000B589B00023039304930593069307938B
:100C60000268154B9A4202D009B05DF804FB0021DE
:100C7000019103F5FA331A6C42F400321A641A6CCB
:100C800002F400320192019A02911A6B42F00102C1
:100C90001A631B6B03F001030293029B0C23039363
:100CA00002230493032306930723079303A903480E
:100CB00000F0D4F8D8E700BF004400400000024034
:100CC00010B504460E4B18784FF47A73B3FBF0F36B
:100CD0000C4A1068B0FBF3F000F0AAF868B90F2CCA
:100CE00001D901200AE0002221464FF0FF3000F038
:100CF0005DF8034B5C60002000E0012010BD00BFE8
:100D0000080000200400002008B50B4B1A6842F4CC
:100D100000721A601A6842F480621A601A6842F41B
:100D200080721A60032000F02FF80020FFF7C8FF40
:100D3000FFF7B4FE002008BD003C0240034A1168E2
:100D4000034B1B780B441360704700BFA0010020C9
:100D500008000020014B1868704700BFA001002068
:100D600038B50446FFF7F6FF0546B4F1FF3F02D061
:100D7000044B1B781C44FFF7EDFF401BA042FAD345
:100D800038BD00BF08000020074AD36823F4E063A1
:100D90001B041B0C000200F4E060184340F0BF602D
:100DA00040F40030D060704700ED00E030B4174BE5
:100DB000DB68C3F30223C3F10704042C28BF042417
:100DC0001D1D062D18D9033B4FF0FF3505FA04F41D
:100DD00021EA0401994005FA03F322EA03031943C7
:100DE00000280BDB0901C9B200F1604000F5614049
:100DF00080F8001330BC70470023E5E700F00F00D7
:100E00000901C9B2024B1954F4E700BF00ED00E03C
:100E100014ED00E0002807DB00F01F024009012369
:100E20009340024A42F82030704700BF00E100E0E2
:100E30000138B0F1807F0AD2064B5860064AF02193
:100E400082F823100020986007221A607047012062
:100E5000704700BF10E000E000ED00E000230F2B22
:100E600000F2D180F0B583B039E0062200E0002224
:100E7000AA403A430234644D45F82420634A14687A
:100E8000F24302EA04054F6817F4803F01D046EAB6
:100E900004055E4C2560646802EA04054F6817F497
:100EA000003F01D046EA0405584C6560A46802EA98
:100EB00004054F6817F4801F01D046EA0405534C1F
:100EC000A560E46822404D6815F4001F01D046EA91
:100ED00004024E4CE26001330F2B00F2928001229B
:100EE0009A400C6804EA0206B242F4D14C68651ECE
:100EF000012D03D9112C01D0122C12D185685F006D
:100F00000324BC4025EA0405CC68BC402C43846023
:100F1000456825EA02054C68C4F300129A402A434A
:100F20004260C4685F000322BA40D24314408D6817
:100F3000BD402543C5604C68022C01D0122C13D152
:100F4000DD08083550F825E003F007044FEA840C6B
:100F50000F2404FA0CF42EEA040E0C6904FA0CF4C3
:100F600044EA0E0440F82540046822404C6804F02E
:100F70000304BC40224302604A6812F0805FAAD09A
:100F800000220192224A546C44F480445464526C0E
:100F900002F480420192019A9C08A51C1A4A52F858
:100FA000257003F0030295000F22AA4027EA0207EA
:100FB000184A90423FF45BAF02F58062904216D02F
:100FC00002F58062904214D002F58062904212D005
:100FD00002F58062904210D002F5806290420ED0FD
:100FE00002F5806290423FF440AF072240E70122C1
:100FF0003EE702223CE703223AE7042238E70522D3
:1010000036E703B0F0BD704700380140003C0140B6
:1010100000380240000002400369194201D100205B
:1010200070470120704712B90904816170478161DE
:101030007047704708B5054B5B69034200D108BD96
:10104000024B5861FFF7F5FFF9E700BF003C014094
:1010500003685A6912F4806F11D06FF480625A618C
:1010600000230363202280F83D2080F83E30026C8C
:1010700042F00402026480F83C30012070470020F6
:101080007047F8B506460C4617461D4622E0FFF7A6
:1010900061FE069BC01AA84200D8DDB90023336365
:1010A000202286F83D2086F83E30326C42F0200245
:1010B000326486F83C3001201AE033685B6924EA28
:1010C00003039BB2B3FA83F35B099F420FD1B5F1DF
:1010D000FF3FDCD1C4F30743012BEED033689B699B
:1010E00024EA03039BB2B3FA83F35B09EDE7002024
:1010F000F8BDF8B504460D4616461F463CE01A6892
:1011000042F400721A6023686FF480625A6100230F
:101110002363202284F83D2084F83E30226C42F084
:101120000402226484F83C30012033E0FFF712FE11
:10113000C01BB04200D8FEB900232363202284F8EC
:101140003D2084F83E30226C42F02002226484F874
:101150003C3001201EE023685B6925EA03039BB253
:10116000003318BF0123A3B123685A6912F4806FBA
:10117000C5D1B6F1FF3FD9D1C5F30743012BEAD062
:1011800023689B6925EA03039BB2003318BF012340
:10119000E9E70020F8BD0000F0B583B004460F4633
:1011A00015461E46C36A082B0DD0012B0BD013F534
:1011B000803F08D0036B122B0AD10268136843F4F6
:1011C0008073136004E02268136843F48073136033
:1011D00000962B4600224FF001112046FFF751FFE9
:1011E00058B123681B6813F4807F2BD04FF4007331
:1011F00023640323184603B0F0BD2369B3F5804F81
:101200000ED1236807F0FE071F6133462A460F49B7
:101210002046FFF76EFF03460028EBD00123E9E7E5
:10122000FB11226803F0060343F0F0031361334619
:101230002A4607492046FFF75CFF28B92368FFB21A
:101240001F61E2E70323D5E70123D3E70200010092
:10125000080001002DE9F04184B004460D46164611
:101260001F46C26A01680B6843F480630B60082A5A
:101270000DD0012A0BD012F5803F08D0036B112B43
:101280000AD10268136843F48073136004E0226893
:10129000136843F4807313600097334600224FF0C5
:1012A00001112046FFF7EDFE60B123681B6813F4BF
:1012B000807F5BD04FF4007323640323184604B08F
:1012C000BDE8F0812369B3F5804F0FD1236845F065
:1012D0000105EDB21D613B46324626492046FFF727
:1012E00008FF03460028E9D00123E7E74FEAE518A5
:1012F00008F00608236848F0F0021A613B463246BF
:101300001D492046FFF7F5FE08B10123D6E7236803
:10131000EDB21D613B46324616492046FFF7E9FE15
:1013200008B10123CAE70022039223685969039197
:10133000996903910399196841F4807119600097C4
:1013400033464FF001112046FFF79BFE48B123685A
:101350001B6813F4807F0BD04FF4007323640323C6
:10136000ACE7226848F0F1031361B4E70323A5E773
:101370000323A3E7020001000800010070B5044642
:101380000D46164623685B6913F0800F1CD120467A
:10139000FFF75EFED0B9B5F1FF3FF3D0FFF7DAFCFF
:1013A000801BA84201D8002DECD10023236320220A
:1013B00084F83D2084F83E30226C42F02002226402
:1013C00084F83C30012000E0002070BD0120FCE7E3
:1013D00070B504460D46164623685B6913F0040F8A
:1013E0001CD12046FFF734FED0B9B5F1FF3FF3D052
:1013F000FFF7B0FC801BA84201D8002DECD10023E0
:101400002363202284F83D2084F83E30226C42F091
:101410002002226484F83C30012000E0002070BDEE
:101420000120FCE770B505460C4616462B685A6944
:1014300012F0400F29D15A6912F0100F15D1FFF7A1
:1014400089FC801BA04201D8002CEFD100232B6324
:10145000202285F83D2085F83E302A6C42F020029B
:101460002A6485F83C30012070BD6FF010025A618B
:1014700000232B63202285F83D2085F83E302A6C1E
:101480002A6485F83C300120EEE70020ECE70000FC
:10149000002800F0C880F8B5044690F83D30002BD5
:1014A00075D0242384F83D302268136823F00103AB
:1014B00013602268136843F40043136022681368C2
:1014C00023F40043136000F061FC6268584B9A42B9
:1014D00062D8584B98428CBF00230123002B40F068
:1014E000A480554BA3FB00239B0C21684A6822F083
:1014F0003F021A434A6025682A6A22F03F02666862
:101500004B498E424ED8013313432B622568E9695B
:1015100021F44F4121F0FF016368454A93424BD8C3
:1015200001385B00B0FBF3F30133C3F30B03042B6F
:1015300038BF04230B43EB6121680B6823F0C00321
:10154000E269206A024313430B6021688B6823F42D
:10155000034323F0FF032269E068024313438B60D7
:101560002168CB6823F0FF036269A069024313433B
:10157000CB602268136843F00103136000202064ED
:10158000202384F83D30206384F83E00F8BD80F8C5
:101590003C30FFF791F884E7284B98428CBF00233A
:1015A00001239BE74FF4967101FB03F32449A1FB50
:1015B00003139B090133A7E7A268BAB9461E03EBE0
:1015C0004307B6FBF7F60136C6F30B06B6FA86F606
:1015D000760936BBC2B9013803EB4303B0FBF3F322
:1015E0000133C3F30B0242F40043A3E7461E03EBAF
:1015F000830707EB8707B6FBF7F60136C6F30B0642
:10160000B6FA86F67609E4E7013803EB830303EBC9
:101610008303B0FBF3F20132C2F30B0242F4404306
:1016200088E7012386E7012070470120AEE700BF6D
:10163000A08601007F841E0083DE1B43FF083D005F
:10164000D34D62102DE9F04184B004460E46904619
:101650001F46FFF77FFB94F83D30DBB2202B04D010
:101660000226304604B0BDE8F081054600901923FB
:1016700001224F492046FFF704FD002840F09180E9
:1016800094F83C30012B00F08E80012384F83C302C
:1016900023681A6812F0010F03D11A6842F00102A0
:1016A0001A602268136823F400631360212384F80E
:1016B0003D30102384F83E3000232364C4F8248096
:1016C0006785638D23853B4BE3622B460A9A31463F
:1016D0002046FFF761FD0646002866D100230393EC
:1016E00023685A6903929B690393039B12E0236C5E
:1016F000042B01D00126B4E72268136843F4007379
:1017000013600126ADE72A460A992046FFF760FEDE
:1017100000282CD1238D002B35D02A460A9920464B
:10172000FFF72CFE0028E2D1626A236812781A6162
:10173000616A4B1C6362638D013B9BB26385238DA1
:10174000013B9BB223852268506910F0040FDAD068
:10175000002BD8D04B781361636A01336362638DC9
:10176000013B9BB26385238D013B2385CBE7236C33
:10177000042B01D0012674E72268136843F4007338
:10178000136001266DE72268136843F40073136049
:10179000202384F83D30002384F83E3084F83C3028
:1017A0005FE702265DE702265BE7012659E700BFF7
:1017B000020010000000FFFF2DE9F04186B0044652
:1017C0000E4690461F46FFF7C5FA94F83D30DBB24F
:1017D000202B04D00226304606B0BDE8F081054635
:1017E0000090192301229E492046FFF74AFC002859
:1017F00040F0348194F83C30012B00F03781012314
:1018000084F83C3023681A6812F0010F03D11A687B
:1018100042F001021A602268136823F40063136027
:10182000222384F83D30102384F83E3000232364C3
:10183000C4F824806785638D23858A4BE3622B4639
:101840000C9A31462046FFF705FD0646002840F079
:101850000F81238D5BB9029323685A6902929A69BA
:101860000292029A1A6842F400721A6077E0012B21
:101870000FD0022B1FD02268136843F480631360DB
:101880000023059323685A6905929B690593059B7C
:1018900065E02268136823F48063136000230393D8
:1018A00023685A6903929A690392039A1A6842F468
:1018B00000721A6053E02268136823F48063136097
:1018C0002268136843F400631360002304932368C1
:1018D0005A6904929B690493049B40E02A460C9940
:1018E0002046FFF79FFD002840F0C48023681A6956
:1018F000636A1A70636A01336362238D013B238537
:10190000638D013B9BB2638529E000950C9B00220F
:1019100055492046FFF7B5FB002840F0AD8022680E
:10192000136843F40073136023681A69636A1A70BA
:10193000626A531C6362238D013B2385638D013BE7
:101940009BB2638523681B695370636A01336362CA
:10195000238D013B2385638D013B9BB26385238DE2
:10196000002B72D0032B49D8012BB7D0022BCCD03F
:1019700000950C9B00223C492046FFF782FB002883
:101980007CD12268136823F48063136023681A698A
:10199000636A1A70636A01336362238D013B238596
:1019A000638D013B9BB2638500950C9B00222E4901
:1019B0002046FFF766FB002862D12268136843F4D3
:1019C0000073136023681A69636A1A70626A531C91
:1019D0006362238D013B2385638D013B9BB263854D
:1019E00023681B695370636A01336362238D013B73
:1019F0002385638D013B9BB26385B0E72A460C9932
:101A00002046FFF70FFD00283CD123681A69636A5E
:101A10001A70626A531C6362238D013B2385638DB8
:101A2000013B9BB263852368596911F0040F96D07E
:101A30001B695370636A01336362238D013B238505
:101A4000638D013B9BB2638589E7202384F83D3099
:101A5000002384F83E3084F83C30BCE60226BAE627
:101A6000020010000000FFFF040001000226B2E6A1
:101A70000126B0E60126AEE60126ACE60126AAE67E
:101A80000126A8E60126A6E62DE9F04385B0044626
:101A9000884691461D46FFF75DF994F83D30DBB26C
:101AA000202B04D00223184605B0BDE8F08306467B
:101AB00000901923012259492046FFF7E2FA002835
:101AC00040F0A18094F83C30012B00F09E8001236F
:101AD00084F83C3023681A6812F0010F03D11A68A9
:101AE00042F001021A602268136823F40063136055
:101AF000242384F83D3000232364A3F58033E3627C
:101B000001273EE023681B6813F4807F7FD04FF4E9
:101B1000007323640323C6E7A02384F83D302368C1
:101B20005A69C2F340025969C1F3802194F83D30EB
:101B3000DBB2A02B09D042B939B9FFF70BF9801BF2
:101B4000A842E9D8002DEAD1E6E7202384F83D3009
:101B500023685A6912F0020F31D11A6842F40072F8
:101B60001A6023686FF480625A610096192301227B
:101B70002A492046FFF785FA00284CD101374F4506
:101B800039D22268136843F48073136000962B46A1
:101B900000224FF001112046FFF773FA0028B1D15F
:101BA000236808F0FE021A61FFF7D4F8064623689E
:101BB0005A69C2F340025969C1F38021B6E71A6835
:101BC00042F400721A600023039323685A69039257
:101BD0009B690393039B0096192301220F4920461A
:101BE000FFF74FFA0346A0B9202284F83D200022D7
:101BF00084F83C2057E7202384F83D30002384F804
:101C00003C3001234FE702234DE702234BE7032338
:101C100049E7012347E7012345E700BF0200100021
:101C2000002800F09E8070B50446504B1B6803F0FE
:101C30000F038B4209D2CBB24C4A1370136803F0E6
:101C40000F038B4201D0012070BD236813F0020FF7
:101C500017D013F0040F04D0454A936843F4E053BF
:101C60009360236813F0080F04D0414A936843F44B
:101C7000604393603E4A936823F0F003A0680343F7
:101C800093600D46236813F0010F32D06368012B77
:101C900021D09A1E012A25D9354A126812F0020F66
:101CA00061D033498A6822F0030213438B60FFF747
:101CB00051F806462E4B9B6803F00C036268B3EBA9
:101CC000820F16D0FFF746F8801B41F28833984206
:101CD000F0D90320B8E7264A126812F4003FE0D199
:101CE0000120B1E7224A126812F0007FD9D1012009
:101CF000AAE71E4B1B6803F00F03AB4209D9EAB2F7
:101D00001A4B1A701B6803F00F03AB4201D001207D
:101D10009AE7236813F0040F06D0154A936823F45A
:101D2000E053E1680B439360236813F0080F07D07A
:101D30000F4A936823F46043216943EAC103936027
:101D400000F044F80A4B9B68C3F30313094AD35CC1
:101D5000D840094B1860094B1868FEF7B1FF002006
:101D600072E70120704701206EE700BF003C02408F
:101D70000038024068350008040000200C000020F4
:101D8000014B1868704700BF0400002008B5FFF73A
:101D9000F7FF044B9B68C3F38223034AD35CD8400C
:101DA00008BD00BF003802407835000808B5FFF7CD
:101DB000E7FF044B9B68C3F34233034AD35CD8402C
:101DC00008BD00BF00380240783500082DE9F04B0F
:101DD0005C4B9B6803F00C03082B07D00C2B5BD0EB
:101DE000042B00F0AD805848BDE8F08B554B5A6885
:101DF00002F03F025B6813F4800F2AD0514B5B68FE
:101E0000C3F388131E4600275C010025E41A65EB26
:101E10000705A90141EA9461A001001B61EB0501DE
:101E2000CB0043EA5073C400A01943EB07014B02F7
:101E300043EAD0534402204619460023FEF7E8F94E
:101E4000404B5B68C3F3014301335B00B0FBF3F02D
:101E5000CAE73C4B5B68C3F388131E4600275C014E
:101E60000025E41A65EB0705A90141EA9461A00188
:101E7000001B61EB0501CB0043EA5073C400A019BD
:101E800043EB07018B0243EA905384022046194634
:101E90000023FEF7BDF9D3E72A4B5A6802F03F0250
:101EA0005B6813F4800F28D0264B5B68C3F388135C
:101EB0001E4600275C010025E41A65EB0705A90111
:101EC00041EA9461A001001B61EB0501CB0043EAEC
:101ED0005073C400A01943EB07014B0243EAD053EF
:101EE0004402204619460023FEF792F9154B5B6821
:101EF000C3F30273B0FBF3F076E7124B5B68C3F3F6
:101F000088131E4600275C010025E41A65EB0705CF
:101F1000A90141EA9461A001001B61EB0501CB001E
:101F200043EA5073C400A01943EB07018B0243EA54
:101F300090538402204619460023FEF769F9D5E73D
:101F4000024851E7003802400024F40000127A00F1
:101F500070B582B00446036813F0010F41D0A64B60
:101F60009B6803F00C03042B32D0A34B9B6803F057
:101F70000C03082B27D0A04B9B6803F00C030C2B01
:101F800059D06368B3F5803F5BD0B3F5A02F5ED026
:101F9000994B1A6822F480321A601A6822F480225F
:101FA0001A606368002B5CD0FEF7D4FE0546924BA6
:101FB0001B6813F4003F14D1FEF7CCFE401B6428CD
:101FC000F5D903209DE18C4B5B6813F4800FD2D0D0
:101FD000894B1B6813F4003F03D06368002B00F0AB
:101FE0008D81236813F0020F67D0834B9B6813F039
:101FF0000C0F4AD0804B9B6803F00C03082B3FD09A
:102000007D4B9B6803F00C030C2B48D0E368002B3E
:1020100074D07A4B01221A60FEF79CFE0546764B7F
:102020001B6813F0020F60D1FEF794FE401B0228DC
:10203000F5D9032065E1704B5B6813F4800FA0D0E5
:10204000C6E76D4A136843F480331360A9E76A4B0F
:102050001A6842F480221A601A6842F480321A60C8
:102060009FE7FEF777FE0546634B1B6813F4003FBE
:10207000B7D0FEF76FFE401B6428F5D9032040E17E
:102080005D4B5B6813F4800FBAD15B4B1B6813F098
:10209000020F0AD0E368012B07D0012031E1564B33
:1020A0005B6813F4800FB1D1EFE7534A136823F054
:1020B000F803216943EAC1031360236813F0080F92
:1020C00040D0636963B34E4B01221A60FEF742FEB3
:1020D0000546494B5B6F13F0020F33D1FEF73AFE12
:1020E000401B0228F5D903200BE1434A136823F073
:1020F000F803216943EAC1031360DEE73F4B002286
:102100001A60FEF727FE05463B4B1B6813F0020FD3
:10211000D3D0FEF71FFE401B0228F5D90320F0E0C4
:10212000374B00221A60FEF715FE0546324B5B6FF7
:1021300013F0020F06D0FEF70DFE401B0228F5D962
:102140000320DEE0236813F0040F79D02A4B1B6CC8
:1021500013F0805F33D100230193274B1A6C42F0B8
:1021600080521A641B6C03F080530193019B01257C
:10217000244B1B6813F4807F23D0A368012B34D039
:10218000052B41D01C4B1A6F22F001021A671A6FFF
:1021900022F004021A67A368002B3FD0FEF7DAFD95
:1021A0000646154B1B6F13F0020F48D1FEF7D2FD08
:1021B000801B41F288339842F3D90320A1E0002527
:1021C000D6E7104A136843F480731360FEF7C2FD2C
:1021D00006460C4B1B6813F4807FCED1FEF7BAFD88
:1021E000801B0228F5D903208BE0034A136F43F0CC
:1021F00001031367CFE700BF0038024000004742E9
:10220000800E474200700040404B1A6F42F00402BB
:102210001A671A6F42F001021A67BCE7FEF79AFDCF
:1022200006463A4B1B6F13F0020F08D0FEF792FDE3
:10223000801B41F288339842F3D9032061E0E5B96D
:10224000A369002B5CD0314A926802F00C02082A84
:1022500059D0022B17D02E4B00221A60FEF77AFDC0
:1022600004462A4B1B6813F0007F45D0FEF772FD31
:10227000001B0228F5D9032043E0244A136C23F005
:1022800080531364DCE7224B00221A60FEF762FDE4
:1022900005461E4B1B6813F0007F06D0FEF75AFD63
:1022A000401B0228F5D903202BE0E369226A13437F
:1022B000626A43EA8213A26A5208013A43EA02437D
:1022C000E26A43EA0263226B43EA02730F4A5360F5
:1022D0000F4B01221A60FEF73DFD04460B4B1B68B5
:1022E00013F0007F06D1FEF735FD001B0228F5D95B
:1022F000032006E0002004E0002002E0012000E0CE
:10230000002002B070BD0120FBE700BF0038024092
:10231000600047422DE9F04B04460268136923F43C
:102320004053C1680B4313618368026913434269D8
:102330001343C2691A430168CB6823F4164323F0A0
:102340000C031343CB600268536923F44073816923
:102350000B435361C369B3F5004F3BD00368714A27
:10236000934200F0AB8002F58062934200F0A680B9
:10237000FFF70CFD4FF00009061849EB090716EBB3
:10238000000B47EB090C4FEACC0343EA5B734FEABF
:10239000CB0293469C4663689A009B0F10EB0B00A0
:1023A00049EB0C01FDF734FF5F4DA5FB00325109ED
:1023B000642202FB110213013233A5FB03235B09E4
:1023C00003F0F00202EB011203F00F032168134443
:1023D0008B60A4E00368534A934239D002F58062CF
:1023E000934235D0FFF7D2FC83464FF0000C06181D
:1023F0004CEB0C0716EB000847EB0C094FEAC9033E
:1024000043EA58734FEAC802904699466268002131
:10241000921841EB01031BEB08004CEB0901FDF79F
:10242000F7FE414DA5FB00325109642202FB110267
:10243000D3003233A5FB03235B095A0002F4F87280
:1024400002EB011203F00703216813448B6066E07E
:10245000FFF7ACFC80464FF00009061849EB09076E
:1024600016EB000B47EB090C4FEACC0343EA5B7316
:102470004FEACB0293469C4662680021921841EBDA
:10248000010318EB0B0049EB0C01FDF7C1FE264DD3
:10249000A5FB00325109642202FB1102D300323342
:1024A000A5FB03235B095A0002F4F87202EB011248
:1024B00003F00703216813448B6030E0FFF776FCDC
:1024C0004FF00009061849EB090716EB000B47EB24
:1024D000090C4FEACC0343EA5B734FEACB02934605
:1024E0009C4663689A009B0F10EB0B0049EB0C01B4
:1024F000FDF78EFE0C4DA5FB00325109642202FB54
:10250000110213013233A5FB03235B0903F0F00230
:1025100002EB011203F00F03216813448B60BDE846
:10252000F08B00BF001001401F85EB512DE9F041F9
:1025300005460F4616469846069C2B681B6837EAE8
:1025400003030CBF01230023B3421DD1B4F1FF3FAD
:10255000F3D02CB1FEF7FEFBA0EB0800A042ECD9B3
:102560002A68D36823F4D073D3602A68536923F0B0
:1025700001035361202385F8393085F83A30002370
:1025800085F83830032000E00020BDE8F08158B322
:1025900010B5044690F839300BB3242384F8393051
:1025A0002268D36823F40053D3602046FFF7B2FEBD
:1025B0002268136923F4904313612268536923F05E
:1025C0002A0353612268D36843F40053D360002088
:1025D000E063202384F8393084F83A3010BD80F865
:1025E0003830FEF735FBD8E7012070472DE9F0437E
:1025F00083B01E4690F83930DBB2202B56D104460A
:102600000D469046002956D0002A56D090F8383012
:10261000012B54D0012380F838304FF00009C0F866
:102620003C90212380F83930FEF794FB0746A4F84C
:102630002480A4F8268084F8389010E000963B4669
:10264000002280212046FFF771FF002839D12B8816
:102650002268C3F3080353602369C3B90235E38CCE
:102660009BB2B3B1E38C013B9BB2E384A368B3F5A7
:10267000805FE3D000963B46002280212046FFF792
:1026800055FF00BB2A7823685A600135E7E701351A
:10269000E5E700963B46002240212046FFF746FF33
:1026A000034690B9202284F8392000E0022318461E
:1026B00003B0BDE8F0830123F9E70123F7E7022324
:1026C000F5E70323F3E70323F1E70323EFE7000034
:1026D000DFF834D0002103E00C4B5B584350043149
:1026E0000B480C4B42189A42F6D30B4A02E00023E7
:1026F00042F8043B094B9A42F9D3FEF781FA00F005
:1027000017F8FEF731F97047000002203C36000848
:10271000000000207400002074000020A8010020A8
:10272000FEE70000014B1868704700BF1000002052
:1027300070B50D4E0D4CA41BA4100025A54209D167
:102740000B4E0C4C00F004FFA41BA4100025A54266
:1027500005D170BD56F8253098470135EEE756F89B
:10276000253098470135F2E7343600083436000842
:10277000343600083836000802440346934200D13C
:10278000704703F8011BF9E70FB40A4B13B51C6837
:1027900024B1A36913B9204600F04EF805AB049AA2
:1027A000A1680193204600F055F902B0BDE8104041
:1027B00004B0704710000020002310B50446C0E9A3
:1027C0000033836081814366C281C0E90433836141
:1027D000194608225C30FFF7CFFF054B6362054BBB
:1027E000A362054BE362054B2462236310BD00BF67
:1027F000B12F0008D32F00080B3000082F3000083D
:10280000014900F085B800BF0933000870B54A1EC1
:10281000682555430E4605F1740100F097F804460B
:1028200040B10021C0E900160C30A06005F168023B
:10283000FFF7A2FF204670BD836910B5044633BB85
:10284000C0E912330365124B124A1B688262984238
:1028500004BF0123836100F01FF86060204600F090
:102860001BF8A060204600F017F80022E060042169
:102870006068FFF7A1FF01220921A068FFF79CFF14
:1028800002221221E068FFF797FF0123A36110BD28
:102890009435000801280008F8B51B4B1E68B36981
:1028A000074613B93046FFF7C7FF4836D6E901346B
:1028B000013B03D5336833B13668F7E7B4F90C5000
:1028C0006DB16834F4E704213846FFF79FFF3060AC
:1028D0000028F1D10C233B6004462046F8BD0B4B89
:1028E0006566C4E90055A560C4E90335C4E905552A
:1028F0000822294604F15C00FFF73EFFC4E90D55AC
:10290000C4E91255E9E700BF943500080100FFFF54
:102910002DE9F8438046894600F14804002614B9A1
:102920003046BDE8F883D4E90175013F01D524683C
:10293000F5E7AB89012B07D9B5F90E30013303D088
:1029400029464046C84706436835EEE770B5CD1CBA
:1029500025F0030508350C2D38BF0C25002D064643
:1029600001DBA94203D90C233360002070BD00F0C5
:102970006BFD214A1468214691B9204C23681BB98C
:10298000304600F005FB20602946304600F000FB91
:10299000431C24D10C233360304600F056FDE4E79D
:1029A0000B685B1B18D40B2B0FD90B60CD50CC18C8
:1029B000304600F04AFD04F10B00231D20F0070013
:1029C000C31AD3D05A42E250D0E78C424B6816BFAC
:1029D000636013600C46EBE70C464968CCE7C41C07
:1029E00024F00304A04205D0211A304600F0D0FAAA
:1029F0000130CFD02560DBE7980000209C0000204C
:102A00009368013B002B10B4936008DA9469A342E9
:102A100001DB0A2903D15DF8044B00F00DBB1368FC
:102A2000581C1060197008465DF8044B7047F8B5E3
:102A300006460F461446D518AC4201D1002007E0E7
:102A40003A4614F8011B3046FFF7DAFF431CF3D176
:102A5000F8BD00002DE9F04F0C469DB017461D460D
:102A6000064618B183690BB9FFF7E6FE7C4B9C4222
:102A700058D17468A38918075ED52369002B5BD0F1
:102A80000023099320238DF8293030238DF82A3034
:102A900003954FF0010BB846454615F8013B0BB1C5
:102AA000252B54D1B8EB070A0BD053463A462146A2
:102AB0003046FFF7BCFF013000F0C280099B534451
:102AC000099398F80030002B00F0BA8000234FF0F3
:102AD000FF32CDE90523049307938DF853301A9301
:102AE000A846052218F8011B5E48FDF719FD049B56
:102AF00078BBD90644BF20228DF853201A0744BF63
:102B00002B228DF853202A782A2A2AD0079AA84601
:102B100000200A25414611F8013B303B092B69D9B9
:102B200060B324E0504B9C4201D1B468A2E74F4B04
:102B30009C4208BFF4689DE72146304600F0E0FA69
:102B400000289DD04FF0FF301DB0BDE8F08FA846A3
:102B5000A2E7444A801A0BFA00F018430490454655
:102B6000BEE7039A111D12680391002A01DB079248
:102B700004E0524243F002030792049398F80030B5
:102B80002E2B0ED198F801302A2B38D1039B1A1D19
:102B90001B680392002BB8BF4FF0FF3308F1020807
:102BA0000593334D98F8001003222846FDF7B8FC32
:102BB00040B14023401B03FA00F0049B034308F19B
:102BC0000108049398F800102A488DF8281006226E
:102BD00008F10107FDF7A4FC002837D0264B1BBBEA
:102BE000039B073323F0070308330393099B4B44EC
:102BF000099350E705FB0232012088468AE700234B
:102C000008F10108059319460A25404610F8012BE2
:102C1000303A092A03D9002BC3D00591C1E705FB3F
:102C2000012101238046F0E703AB00932246134BBA
:102C300004A93046AFF30080B0F1FF3F8146D5D103
:102C4000A3895B063FF57EAF09987DE703AB009350
:102C500022460A4B04A9304600F088F8ECE700BF92
:102C6000B8350008F8350008D83500089835000850
:102C7000FE35000802360008000000002F2A000878
:102C80002DE9F04791461F468A680B69DDF82080E0
:102C90009342B8BF1346C9F8003091F84320064666
:102CA0000C4612B10133C9F800302368990642BFBF
:102CB000D9F800300233C9F80030256815F0060550
:102CC00007D104F1190AE368D9F800209B1AAB4236
:102CD00028DC94F843302268003318BF01239206A1
:102CE0002DD404F1430239463046C047013020D08C
:102CF0002368E568D9F8002003F00603042B08BF19
:102D0000AD1AA36822690CBF25EAE5750025934238
:102D1000C4BF9B1AED184FF000091A344D451AD163
:102D2000002008E00123524639463046C0470130B2
:102D300003D14FF0FF30BDE8F0870135C3E7E1185C
:102D40005A1C302081F84300224494F8451082F840
:102D500043100233C5E70123224639463046C047B7
:102D60000130E6D009F10109D8E700002DE9F04370
:102D700001F1430C0C46097E85B06E2917460646C4
:102D800098460C9A00F0B38022D8632936D00AD82E
:102D9000002900F0B980582900F0838004F1420531
:102DA00084F8421032E0642901D06929F6D1206804
:102DB0001368050603F104012AD51B681160002B76
:102DC00003DA2D225B4284F843206F480A2239E05F
:102DD000732900F09D8008D86F2920D07029DDD19B
:102DE000236843F02003236003E0752917D0782976
:102DF000D4D1782384F84530644855E01368191D10
:102E00001B68116004F1420584F8423001238CE014
:102E10001B68116010F0400F18BF1BB2CFE713689A
:102E20002568181D1060280601D51B6802E0680699
:102E3000FBD51B8854486F2914BF0A2208220021A1
:102E400084F843106568A560002DC0F29580216864
:102E500021F004012160002B3DD1002D40F08E8037
:102E60006546082A0BD12368DB0708D52369626809
:102E70009A42DEBF302305F8013C05F1FF35ACEB8B
:102E800005032361CDF800803B4603AA2146304666
:102E9000FFF7F6FE01304DD14FF0FF3005B0BDE831
:102EA000F083394884F84510136821681D1D1B689C
:102EB00015600A060BD5CA0744BF41F02001216006
:102EC0001BB9226822F0200222601022B7E74D06CB
:102ED00048BF9BB2EFE76546B3FBF2F102FB11334B
:102EE000C35C05F8013D0B460029F5D1B9E713682D
:102EF00025686169181D106028061B6801D51960D6
:102F000002E06A06FBD51980002323616546B9E714
:102F10001368191D11601D68626800212846FDF7BD
:102F2000FFFA08B1401B606063682361002384F8E6
:102F30004330A7E723692A4639463046C047013067
:102F4000AAD023689B0713D4E068039B9842B8BFBC
:102F50001846A3E701234A4639463046C0470130A8
:102F60009AD00135E368039A9B1AAB42F2DCEBE797
:102F7000002504F11909F5E7002BACD1037884F89A
:102F8000423004F142056CE7093600081A360008A1
:102F900038B5064C0023054608462360FDF706FEBB
:102FA000431C02D1236803B12B6038BDA40100206B
:102FB00010B50C46B1F90E1000F096FA0028ABBF20
:102FC000636DA3891B1823F48053ACBF6365A38191
:102FD00010BD2DE9F0411F468B89DB0505460C46E7
:102FE000164605D502230022B1F90E1000F0B6F9FD
:102FF000A389B4F90E1023F48053A38132463B46D3
:103000002846BDE8F04100F069B810B50C46B1F9AA
:103010000E1000F0A3F9431CA38915BF606523F4CB
:10302000805343F48053A38118BFA38110BDB1F92D
:103030000E1000F0D3B80000F8B50E461446054651
:1030400018B183690BB9FFF7F7FB214B9C422AD1DA
:103050006C68A369A360A3891A072ED5236963B39B
:1030600023692068C01A6369F6B28342374604DCDC
:103070002146284600F048F928BBA368013BA3601D
:1030800023685A1C22601E7063690130834204D099
:10309000A389DB0719D50A2E17D12146284600F04F
:1030A00033F990B10FE00B4B9C4201D1AC68D0E7F3
:1030B000094B9C4208BFEC68CBE72146284600F04C
:1030C0001FF80028CCD04FF0FF373846F8BD00BFBE
:1030D000B8350008D83500089835000838B5074CD1
:1030E000054608461146002222601A46FDF750FDAB
:1030F000431C02D1236803B12B6038BDA40100201A
:10310000324B70B51D6806460C4625B1AB6913B944
:103110002846FFF791FB2E4B9C420FD16C68B4F907
:103120000C309AB215072CD4D00611D40922326083
:1031300043F04003A3814FF0FF303EE0254B9C421B
:1031400001D1AC68EBE7244B9C4208BFEC68E6E792
:10315000510712D5616B41B104F14403994202D089
:10316000304600F073F900236363A38923F024033E
:10317000A3810023636023692360A38943F00803CC
:10318000A38123694BB9A38903F42073B3F5007FAE
:1031900003D02146304600F017F9A28912F001034E
:1031A0000CD00023A36063695B42A361236953B918
:1031B000B4F90C3013F08000BAD170BD920758BF3B
:1031C0006369A360F2E70020F7E700BF100000206A
:1031D000B8350008D83500089835000838B5064CD1
:1031E0000023054608462360FDF7FEFC431C02D180
:1031F000236803B12B6038BDA40100208A892DE922
:10320000F041054610070C4658D44B68002B05DCEE
:103210000B6C002B02DC0020BDE8F081E66A002E7A
:10322000F9D0002312F480522F68216A2B6032D02B
:10323000606DA3895A0705D56368C01A636B0BB12B
:10324000236CC01A00230246E66A216A2846B0476A
:10325000431CA38906D129681D2948D8294ACA4098
:10326000D60744D500226260D9042269226004D5C1
:10327000421C01D12B6803B96065616B2F60002986
:10328000C9D004F14403994202D0284600F0DEF888
:1032900000206063C0E701232846B047411CC8D125
:1032A0002B68002BC5D01D2B01D0162B01D12F6010
:1032B000B1E7A38943F04003A381ADE70F69002F75
:1032C000A9D093070E6808BF4B690F6018BF002391
:1032D000A6EB07088B60B8F1000F9CDD43463A4629
:1032E000216AA66A2846B047002806DCA38943F075
:1032F0004003A3814FF0FF308EE70744A8EB00089E
:10330000E9E700BF0100402038B50B6905460C46CF
:10331000DBB118B183690BB9FFF78EFA0C4B9C42F5
:1033200009D16C68B4F90C307BB121462846BDE860
:103330003840FFF763BF074B9C4201D1AC68F1E70F
:10334000054B9C4208BFEC68ECE7002038BD00BF8D
:10335000B8350008D83500089835000838B5074C4E
:10336000054608461146002222601A46FDF746FC33
:10337000431C02D1236803B12B6038BDA401002097
:1033800070B50E46B1F90E10002996B014461D46D0
:1033900007DA00232B60B3891A0610D44FF4806338
:1033A0000EE06A4600F0B2F80028F2DB019A02F45F
:1033B0007042A2F500535A425A412A60EEE7402378
:1033C0000020236016B070BD8B8973B59D0706463B
:1033D0000C4607D504F14703236023610123636191
:1033E00002B070BD01AB6A46FFF7CAFF00990546FF
:1033F0003046FFF7ABFA48B9B4F90C309A05EFD470
:1034000023F0030343F00203A381E3E70D4BB36210
:10341000A389206043F08003A381009B6361019B2B
:1034200020615BB1B4F90E10304600F081F828B18C
:10343000A38923F0030343F00103A381A3891D4360
:10344000A581CDE7012800087047704738B50546CB
:10345000002945D051F8043C0C1F002BB8BFE418DC
:10346000FFF7F2FF1F4A1368104633B96360146018
:103470002846BDE83840FFF7E8BFA3420CD92168D1
:103480006218934204BF1A685B68636004BF5218F5
:1034900022600460ECE713465A680AB1A242FAD9E6
:1034A00019685818A0420BD120680144581882426C
:1034B0001960DDD1106852685A6001441960D7E77D
:1034C00002D90C232B60D3E7206821188A4204BF5D
:1034D00011685268626004BF091821605C60C7E728
:1034E00038BD00BF9800002038B5074C0546084697
:1034F0001146002222601A46FDF73CFB431C02D114
:10350000236803B12B6038BDA401002038B5074CF7
:1035100000230546084611462360FDF768FB431C5F
:1035200002D1236803B12B6038BD00BFA401002085
:1035300038B5064C0023054608462360FDF75CFBC2
:10354000431C02D1236803B12B6038BDA4010020C5
:10355000F8B500BFF8BC08BC9E467047F8B500BF80
:08356000F8BC08BC9E46704750
:10356800000000000000000001020304060708092B
:10357800000000000102030445696E005374617481
:1035880075733A202533690A0000000014000020F2
:103598000000000000000000000000000000000023
:1035A8000000000000000000000000000000000013
:1035B8000000000000000000000000000000000003
:1035C80000000000000000000000000000000000F3
:1035D80000000000000000000000000000000000E3
:1035E80000000000000000000000000000000000D3
:1035F800232D302B2000686C4C00656667454647D4
:103608000030313233343536373839414243444556
:1036180046003031323334353637383961626364C5
:0436280065660000D3
:08362C0014CCFF7F0100000037
:04363400F501000894
:04363800D1010008B4
:10363C00120153660024F400010000001000000089
:10364C001400002000000000B8350008D835000830
:10365C009835000800000000000000000000000089
:10366C00000000000000000000000000000000004E
:10367C00000000000000000000000000000000003E
:10368C00000000000000000000000000000000002E
:10369C00000000000000000000000000000000001E
:0436AC00000000001A
:04000005080026D1F8
:00000001FF
