:020000040800F2
:100000000000022051330008553000085730000826
:10001000593000085B3000085D3000080000000027
:100020000000000000000000000000005F30000839
:1000300061300008000000006330000865300008EF
:10004000A1330008A1330008A1330008A133000840
:10005000A1330008A1330008A1330008A133000830
:10006000A1330008A1330008A1330008A133000820
:10007000A1330008A1330008A1330008A133000810
:10008000A1330008A1330008A1330008A133000800
:10009000A1330008A1330008A1330008A1330008F0
:1000A000A1330008A1330008A1330008A1330008E0
:1000B000A1330008A1330008A1330008A1330008D0
:1000C000A1330008A1330008A1330008A1330008C0
:1000D000A1330008A1330008A1330008A1330008B0
:1000E000A1330008A1330008A1330008A1330008A0
:1000F000A1330008A1330008A1330008A133000890
:10010000A1330008A1330008A1330008A13300087F
:10011000A1330008A1330008A1330008A13300086F
:10012000A1330008A1330008A1330008A13300085F
:10013000A13300080000000000000000A133000807
:10014000A1330008A1330008A1330008A13300083F
:10015000A13300086D300008A1330008A133000866
:10016000A1330008A1330008A1330008A13300081F
:10017000A1330008A1330008A133000800000000EB
:1001800000000000A1330008000000000000000093
:10019000A13300080000000000000000A1330008A7
:1001A000000000000000000000000000A133000873
:1001B000A1330008A1330008A1330008A1330008CF
:0401C000A13300085F
:1001D00010B5054C237833B9044B13B10448AFF381
:1001E00000800123237010BDB8090020000000002A
:1001F0002483000808B5034B1BB103490348AFF340
:10020000008008BD00000000BC0900202483000815
:1002100001F0FF01102A2BDB10F0070F08D010F8B7
:10022000013B013A8B422DD010F0070F42B3F6D1BB
:10023000F0B441EA012141EA014122F007047FF0D4
:1002400000070023F0E80256083C85EA010586EA2B
:10025000010685FA47F5A3FA87F586FA47F6A5FA67
:1002600087F68EB9EED1F0BC01F0FF0102F0070273
:1002700032B110F8013B013A83EA010313B1F8D11E
:100280000020704701387047002D06BF35460338FF
:10029000073815F0010F07D1013015F4807F02BF38
:1002A000013015F4C03F0130F0BC0138704700BF89
:1002B000034613F8012B002AFBD1181A01387047A6
:1002C00081F0004102E000BF83F0004330B54FEA07
:1002D00041044FEA430594EA050F08BF90EA020F74
:1002E0001FBF54EA000C55EA020C7FEA645C7FEA07
:1002F000655C00F0E2804FEA5454D4EB5555B8BF2A
:100300006D420CDD2C4480EA020281EA030382EA9A
:10031000000083EA010180EA020281EA0303362D2C
:1003200088BF30BD11F0004F4FEA01314FF4801CFF
:100330004CEA113102D0404261EB410113F0004F11
:100340004FEA03334CEA133302D0524263EB4303C8
:1003500094EA050F00F0A780A4F10104D5F1200E66
:100360000DDB02FA0EFC22FA05F2801841F10001C1
:1003700003FA0EF2801843FA05F359410EE0A5F195
:1003800020050EF1200E012A03FA0EFC28BF4CF0C6
:10039000020C43FA05F3C01851EBE37101F000457C
:1003A00007D54FF0000EDCF1000C7EEB00006EEB89
:1003B0000101B1F5801F1BD3B1F5001F0CD3490813
:1003C0005FEA30004FEA3C0C04F101044FEA44526A
:1003D00012F5800F80F09A80BCF1004F08BF5FEAF1
:1003E000500C50F1000041EB045141EA050130BDD1
:1003F0005FEA4C0C404141EB010111F4801FA4F174
:100400000104E9D191F0000F04BF01460020B1FAC8
:1004100081F308BF2033A3F10B03B3F120020CDA00
:100420000C3208DD02F1140CC2F10C0201FA0CF0DE
:1004300021FA02F10CE002F11402D8BFC2F1200C43
:1004400001FA02F120FA0CFCDCBF41EA0C019040F9
:10045000E41AA2BF01EB0451294330BD6FEA040442
:100460001F3C1CDA0C340EDC04F11404C4F120022D
:1004700020FA04F001FA02F340EA030021FA04F33F
:1004800045EA030130BDC4F10C04C4F1200220FA96
:1004900002F001FA04F340EA0300294630BD21FAD4
:1004A00004F0294630BD94F0000F83F4801306BF9A
:1004B00081F480110134013D4EE77FEA645C18BF8E
:1004C0007FEA655C29D094EA050F08BF90EA020F25
:1004D00005D054EA000C04BF1946104630BD91EA1D
:1004E000030F1EBF0021002030BD5FEA545C05D120
:1004F0004000494128BF41F0004130BD14F580045F
:100500003CBF01F5801130BD01F0004545F0FE41D2
:1005100041F470014FF0000030BD7FEA645C1ABF07
:10052000194610467FEA655C1CBF0B46024650EA3E
:10053000013406BF52EA033591EA030F41F400216A
:1005400030BD00BF90F0000F04BF0021704730B5F0
:100550004FF4806404F132044FF000054FF00001C5
:1005600050E700BF90F0000F04BF0021704730B586
:100570004FF4806404F1320410F0004548BF40425B
:100580004FF000013EE700BF42004FEAE2014FEAB0
:1005900031014FEA02701FBF12F07F4393F07F4F8B
:1005A00081F06051704732F07F4208BF704793F08E
:1005B0007F4F04BF41F40021704730B54FF46074A1
:1005C00001F0004521F000411CE700BF50EA0102A4
:1005D00008BF704730B54FF000050AE050EA01024D
:1005E00008BF704730B511F0004502D5404261EBBD
:1005F00041014FF4806404F132045FEA915C3FF4FE
:10060000D8AE4FF003025FEADC0C18BF03325FEA9A
:10061000DC0C18BF033202EBDC02C2F1200300FA4B
:1006200003FC20FA02F001FA03FE40EA0E0021FA70
:1006300002F11444BDE600BF70B54FF0FF0C4CF45E
:10064000E06C1CEA11541DBF1CEA135594EA0C0F10
:1006500095EA0C0F00F0DEF82C4481EA030621EA4B
:100660004C5123EA4C5350EA013518BF52EA033586
:1006700041F4801143F4801338D0A0FB02CE4FF038
:100680000005E1FB02E506F00042E0FB03E54FF068
:100690000006E1FB03569CF0000F18BF4EF0010E60
:1006A000A4F1FF04B6F5007F64F5407404D25FEA5C
:1006B0004E0E6D4146EB060642EAC62141EA55510F
:1006C0004FEAC52040EA5E504FEACE2EB4F1FD0C51
:1006D00088BFBCF5E06F1ED8BEF1004F08BF5FEACF
:1006E000500E50F1000041EB045170BD06F0004681
:1006F00046EA010140EA020081EA0301B4EB5C042E
:10070000C2BFD4EB0C0541EA045170BD41F4801125
:100710004FF0000E013C00F3AB8014F1360FDEBF4A
:10072000002001F0004170BDC4F10004203C35DA26
:100730000C341BDC04F11404C4F1200500FA05F3A9
:1007400020FA04F001FA05F240EA020001F000424A
:1007500021F0004110EBD37021FA04F642EB0601C0
:100760005EEA430E08BF20EAD37070BDC4F10C04EA
:10077000C4F1200500FA04F320FA05F001FA04F2AE
:1007800040EA020001F0004110EBD37041F100019A
:100790005EEA430E08BF20EAD37070BDC4F12005A5
:1007A00000FA05F24EEA020E20FA04F301FA05F20D
:1007B00043EA020321FA04F001F0004121FA04F2B5
:1007C00020EA020000EBD3705EEA430E08BF20EA85
:1007D000D37070BD94F0000F0FD101F000464000BF
:1007E00041EB010111F4801F08BF013CF7D041EA41
:1007F000060195F0000F18BF704703F00046520045
:1008000043EB030313F4801F08BF013DF7D043EA15
:100810000603704794EA0C0F0CEA135518BF95EACB
:100820000C0F0CD050EA410618BF52EA4306D1D152
:1008300081EA030101F000414FF0000070BD50EA71
:10084000410606BF1046194652EA430619D094EAFB
:100850000C0F02D150EA013613D195EA0C0F05D1E5
:1008600052EA03361CBF104619460AD181EA030139
:1008700001F0004141F0FE4141F470014FF00000F1
:1008800070BD41F0FE4141F4780170BD70B54FF08C
:10089000FF0C4CF4E06C1CEA11541DBF1CEA13550C
:1008A00094EA0C0F95EA0C0F00F0A7F8A4EB0504EE
:1008B00081EA030E52EA03354FEA013100F08880E5
:1008C0004FEA03334FF0805545EA131343EA1263AE
:1008D0004FEA022245EA111545EA10654FEA002663
:1008E0000EF000419D4208BF964244F1FD0404F51C
:1008F000407402D25B084FEA3202B61A65EB030578
:100900005B084FEA32024FF480104FF4002CB6EB34
:10091000020E75EB030E22BFB61A754640EA0C00B4
:100920005B084FEA3202B6EB020E75EB030E22BFF4
:10093000B61A754640EA5C005B084FEA3202B6EB35
:10094000020E75EB030E22BFB61A754640EA9C00F4
:100950005B084FEA3202B6EB020E75EB030E22BFC4
:10096000B61A754640EADC0055EA060E18D04FEA82
:10097000051545EA16754FEA06164FEAC30343EA22
:1009800052734FEAC2025FEA1C1CC0D111F4801FEF
:100990000BD141EA00014FF000004FF0004CB6E7E8
:1009A00011F4801F04BF01430020B4F1FD0C88BF87
:1009B000BCF5E06F3FF6AFAEB5EB030C04BFB6EB92
:1009C000020C5FEA500C50F1000041EB045170BD85
:1009D0000EF0004E4EEA113114EB5C04C2BFD4EBB2
:1009E0000C0541EA045170BD41F480114FF0000E36
:1009F000013C90E645EA060E8DE60CEA135594EAB2
:100A00000C0F08BF95EA0C0F3FF43BAF94EA0C0FB4
:100A10000AD150EA01347FF434AF95EA0C0F7FF429
:100A200025AF104619462CE795EA0C0F06D152EA7D
:100A300003353FF4FDAE1046194622E750EA410661
:100A400018BF52EA43067FF4C5AE50EA41047FF472
:100A50000DAF52EA43057FF4EBAE12E74FF0FF3CD7
:100A600006E000BF4FF0010C02E000BF4FF0010CA8
:100A70004DF804CD4FEA410C7FEA6C5C4FEA430C21
:100A800018BF7FEA6C5C1BD001B050EA410C0CBF70
:100A900052EA430C91EA030F02BF90EA020F0020D2
:100AA000704710F1000F91EA030F58BF994208BF39
:100AB00090422CBFD8176FEAE37040F001007047F6
:100AC0004FEA410C7FEA6C5C02D150EA013C07D14D
:100AD0004FEA430C7FEA6C5CD6D152EA033CD3D098
:100AE0005DF8040B704700BF8446104662468C4692
:100AF0001946634600E000BF01B5FFF7B7FF0028C5
:100B000048BF10F1000F01BD4DF808EDFFF7F4FFED
:100B10000CBF012000205DF808FB00BF4DF808ED78
:100B2000FFF7EAFF34BF012000205DF808FB00BF9B
:100B30004DF808EDFFF7E0FF94BF012000205DF8BD
:100B400008FB00BF4DF808EDFFF7CEFF94BF012072
:100B500000205DF808FB00BF4DF808EDFFF7C4FF6B
:100B600034BF012000205DF808FB00BF4FEA410CB4
:100B70007FEA6C5C02D150EA013C0AD14FEA430C97
:100B80007FEA6C5C02D152EA033C02D14FF00000D4
:100B900070474FF0010070474FEA410212F5001212
:100BA00015D211D56FF47873B3EB625212D94FEAB4
:100BB000C12343F0004343EA505311F0004F23FA9E
:100BC00002F018BF404270474FF00000704750EAF3
:100BD000013005D111F0004008BF6FF000407047B0
:100BE0004FF00000704700BF53B94AB9002908BF51
:100BF00000281CBF4FF0FF314FF0FF3000F072B9FA
:100C0000ADF1080C6DE904CE00F006F8DDF804E063
:100C1000DDE9022304B070472DE9F047089E044641
:100C20008846002B4BD18A42154667D9B2FA82F228
:100C30004AB1C2F1200701FA02F320FA07F7954002
:100C400047EA030894404FEA154E230CB8FBFEF721
:100C50001FFA85FC0EFB178843EA084307FB0CF1DB
:100C6000994209D9EB1807F1FF3080F01B819942B6
:100C700040F21881023F2B445B1AA4B2B3FBFEF092
:100C80000EFB103344EA034400FB0CFCA44509D9D5
:100C90002C1900F1FF3380F00781A44540F2048154
:100CA00002382C4440EA0740A4EB0C0400271EB194
:100CB000D4400023C6E900433946BDE8F0878B42A3
:100CC00009D9002E00F0EB800027C6E90001384664
:100CD0003946BDE8F087B3FA83F7002F47D18B423E
:100CE00002D3824200F2FA80841A61EB03030120EE
:100CF0009846002EE0D0C6E90048DDE702B9FFDEE5
:100D0000B2FA82F2002A40F08F80491B4FEA154E5A
:100D10001FFA85F80127B1FBFEFC230C0EFB1C110A
:100D200043EA014308FB0CF1994207D9EB180CF197
:100D3000FF3002D2994200F2CD808446591AA3B204
:100D4000B1FBFEF00EFB101443EA044408FB00F86C
:100D5000A04507D92C1900F1FF3302D2A04500F2BB
:100D6000B6801846A4EB080440EA0C409FE7C7F1A0
:100D7000200CBB4022FA0CFE4EEA030E01FA07F4E7
:100D800020FA0CF521FA0CF34FEA1E482543B3FB79
:100D9000F8F92C0C08FB19331FFA8EFA44EA0343C6
:100DA00009FB0AF49C4202FA07F200FA07F10BD998
:100DB0001EEB030309F1FF3080F087809C4240F274
:100DC0008480A9F1020973441B1BADB2B3FBF8F098
:100DD00008FB103345EA034400FB0AFAA24508D990
:100DE0001EEB040400F1FF336BD2A24569D902382F
:100DF000744440EA0940A0FB0289A4EB0A044C4574
:100E0000C2464B4654D351D0002E69D0B1EB0A05EF
:100E100064EB030404FA0CFCFD40FC404CEA0505BD
:100E2000C6E90054002747E7C2F1200320FA03F780
:100E3000954001FA02F021FA03F34FEA154E3843C8
:100E4000010CB3FBFEF71FFA85F80EFB173341EADE
:100E5000034107FB08F38B4204FA02F407D969182F
:100E600007F1FF3C2FD28B422DD9023F2944CB1AE8
:100E700081B2B3FBFEF00EFB103341EA034100FBED
:100E800008F38B4207D9691800F1FF3C17D28B4257
:100E900015D902382944C91A40EA07473BE73746C3
:100EA000304609E70746E7E61846FBE64145ABD280
:100EB000B8EB020A69EB0E0201381346A4E760465C
:100EC000E9E7184695E76746D1E781467CE70238AF
:100ED0002C4447E7ACF1020C2B442FE7384608E7D7
:100EE0003746E9E6704700BF10B504460E4B187848
:100EF0004FF47A73B3FBF0F30C4A1068B0FBF3F0D5
:100F000000F03AFB68B90F2C01D901200AE0002259
:100F100021464FF0FF3000F0EDFA034B5C600020FB
:100F200000E0012010BD00BF0000002008000020EC
:100F300008B50B4B1A6842F400721A601A6842F442
:100F400080621A601A6842F480721A60032000F00E
:100F5000BFFA0020FFF7C8FF02F05CF8002008BDD0
:100F6000003C0240034A1168034B1B780B4413609A
:100F7000704700BF480A002000000020014B18689D
:100F8000704700BF480A002038B50446FFF7F6FF57
:100F90000546B4F1FF3F02D0044B1B781C44FFF719
:100FA000EDFF401BA042FAD338BD00BF0000002077
:100FB0004A4B5A6822F440325A605A6841680A43E0
:100FC0005A600268536823F4807353600268536860
:100FD000016943EA012353600268536823F04073B8
:100FE00053600268536881680B43536002689368DA
:100FF00023F40063936002689368C1680B439360B5
:10100000826A374B9A424BD00268936823F0706330
:10101000936002689368816A0B43936002689368E7
:1010200023F04053936002689368C16A0B43936056
:101030000268936823F00203936002689368017E5C
:1010400043EA4103936090F82030002B33D10268CB
:10105000536823F4006353600268D36A23F4700377
:10106000D3620168CB6AC269013A43EA0253CB6298
:101070000268936823F4007393600268936890F8A1
:10108000301043EA412393600268936823F480633D
:10109000936002689368416943EA812393607047D3
:1010A0000268936823F0706393600268936823F08A
:1010B00040539360BCE70268536843F40063536095
:1010C0000268536823F46043536001684B68426AC6
:1010D000013A43EA42334B60BEE700BF00230140C0
:1010E0000100000F38B310B50446036C43B1236C04
:1010F00013F0100F0BD00120002384F83C3010BDFA
:1011000001F078FD0023636484F83C30EFE7236C42
:1011100023F4885323F0020343F0020323642046A0
:10112000FFF746FF00206064236C23F0030343F0C5
:1011300001032364E0E701207047000082B0002330
:10114000019390F83C30012B7DD0012380F83C3096
:1011500003689A6812F0010F13D19A6842F00102F5
:101160009A603E4B1B683E4AA2FB03239B0C03EB99
:101170004303019302E0019B013B0193019B002B80
:10118000F9D10268936813F0010F5ED0036C23F469
:10119000E06323F0010343F480730364536813F4A2
:1011A000806F05D0036C23F4405343F480530364F1
:1011B000036C13F4805F1BD0436C23F0060343647D
:1011C000002380F83C306FF022031360254B5B68EE
:1011D00013F01F0F27D10368234A934219D002F559
:1011E0008072934207D0214A93420BD000202DE019
:1011F00000234364E4E702F50072526812F01F0F07
:1012000007D0F0E702F58072526802F01F020F2A41
:101210001ED89A6812F0405F1CD19A6842F0804252
:101220009A60002012E003680F4A934201D0002028
:101230000CE09A6812F0405F0ED19A6842F080424A
:101240009A60002002E0022000E0002002B0704717
:101250000020FBE70020F9E70020F7E70800002066
:1012600083DE1B4300230140002001400022014097
:1012700003689A6812F4806F03D09B6813F4807F30
:101280001CD170B50D460446FFF778FE064623686C
:101290001A6812F0020F1AD1B5F1FF3FF7D025B14D
:1012A000FFF76CFE801BA842F1D9236C43F00403C6
:1012B0002364002384F83C3003202DE0036C43F0CA
:1012C00020030364002380F83C30012070476FF056
:1012D00012021A60236C43F40073236423689A6833
:1012E00012F0405F17D1227EBAB9DA6A12F4700F99
:1012F00003D09B6813F4806F11D1236C23F48073A7
:101300002364236C13F4805F0BD1236C43F001033F
:101310002364002000E0002070BD0020FCE70020D6
:10132000FAE70020F8E70368D86C704730B482B061
:101330000023019390F83C30012B00F0BD80012385
:1013400080F83C300B68092B3ED90568EA689BB2EF
:1013500003EB43031E3B072404FA03F322EA0303CF
:10136000EB600568EA688C680B8803EB43031E3B5F
:1013700004FA03F31343EB604B68062B3AD8056875
:101380006A6B03EB8303053B1F2404FA03F322EA91
:1013900003036B6305686A6B4B6803EB8303053BD0
:1013A0000C8804FA03F313436B630268434B9A42BD
:1013B00050D00268414B9A4259D0002380F83C300B
:1013C000184602B030BC704705682A699BB203EB2F
:1013D0004303072404FA03F322EA03032B6105689D
:1013E0002A698C680B8803EB430304FA03F3134365
:1013F0002B61C1E70C2B16D805682A6B03EB83031E
:10140000233B1F2404FA03F322EA03032B6305683A
:101410002A6B4B6803EB8303233B0C8804FA03F32A
:1014200013432B63C1E70568EA6A03EB8303413B7F
:101430001F2404FA03F322EA0303EB620568EA6A55
:101440004B6803EB8303413B0C8804FA03F313431B
:10145000EB62AAE70B68122BABD1194B5A6822F446
:1014600000025A605A6842F480025A60A1E70B6891
:10147000144A934201D0112B9FD1114B5A6822F488
:1014800080025A605A6842F400025A600A680D4BA2
:101490009A4292D10C4B1B680C4AA2FB03239B0C73
:1014A00003EB83035A00019202E0019B013B01938D
:1014B000019B002BF9D180E7022082E70020014048
:1014C00000230140120000100800002083DE1B43AF
:1014D000074AD36823F4E0631B041B0C000200F4EA
:1014E000E060184340F0BF6040F40030D0607047C7
:1014F00000ED00E030B4174BDB68C3F30223C3F107
:101500000704042C28BF04241D1D062D18D9033BF5
:101510004FF0FF3505FA04F421EA0401994005FA79
:1015200003F322EA0303194300280BDB0901C9B2C4
:1015300000F1604000F5614080F8001330BC704756
:101540000023E5E700F00F000901C9B2024B19546E
:10155000F4E700BF00ED00E014ED00E0002807DB39
:1015600000F01F02400901239340024A42F8203054
:10157000704700BF00E100E00138B0F1807F0AD27F
:10158000064B5860064AF02182F82310002098602C
:1015900007221A6070470120704700BF10E000E08A
:1015A00000ED00E030B405682C6824F480242C6041
:1015B000046863608368402B05D003689960036802
:1015C000DA6030BC704703689A600368D960F8E756
:1015D0000268D3B2103B0B49A1FB03131B090A4954
:1015E000C95CC165032B06D822F47F7222F0030286
:1015F0008265806D704722F47F7222F0030204320C
:101600008265F6E7ABAAAAAA40830008836A8269CA
:1016100092B9012B0AD01BB1022B01D000207047D8
:10162000C36A13F0807F2CD100207047C36AB3F1E6
:10163000C07F28D000207047B2F5005F05D0022B94
:1016400029D9032B15D000207047032B03D8DFE8DE
:1016500003F01C041C0A00207047C36A13F0807F4B
:1016600015D100207047C36AB3F1C07F11D00020AC
:101670007047C36A13F0807F01D0012070470020BB
:1016800070470120704701207047012070470120FA
:1016900070470120704701207047000070B5044674
:1016A000FFF76CFC002C5BD00546002384F8343037
:1016B000022384F835302268136823F00103136095
:1016C00023681A6812F0010F0AD0FFF757FC401B7D
:1016D0000528F5D920236365032084F8350070BD03
:1016E0001A68204810406168A2680A43E1680A430A
:1016F00021690A4361690A43A1690A43E1690A430E
:10170000216A0A430243616A04291ED01A602668CE
:10171000756925F00705636A1D43042B07D1A36A89
:101720001D43E36A1BB12046FFF770FF90B9756156
:101730002046FFF74DFFE26D3F239340836000207A
:101740006065012384F83530C9E7E16A206B014305
:101750000A43DBE740236365012084F83500BEE7D8
:101760000120BCE73F8010F038B5856D90F834401B
:10177000012C2CD0012480F8344090F83540E4B29C
:10178000012C04D0002380F83430022038BD0446F8
:10179000022084F83500002060652046FFF702FF34
:1017A000E26D3F239340AB602268136843F0160359
:1017B0001360236C23B12268136843F0080313609D
:1017C0002268136843F0010313600020DEE7022063
:1017D000DCE70000F0B583B0044600230193724BB0
:1017E0001D68724BA3FB0535AD0A876D3E68C26D5F
:1017F00008239340334210D003681A6812F0040F94
:101800000BD01A6822F004021A60C26D08239340BC
:10181000BB60436D43F001034365E26D01239340D8
:10182000334209D02268526912F0800F04D0BB60A5
:10183000636D43F002036365E26D0423934033421A
:1018400009D02268126812F0020F04D0BB60636DE9
:1018500043F004036365E26D10239340334224D0C8
:101860002268126812F0080F1FD0BB6023681A6844
:1018700012F4802F0DD01B6813F4002F04D1236CB9
:101880009BB12046984710E0A36C73B1204698475F
:101890000BE01A6812F4807F03D11A6822F0080264
:1018A0001A60236C0BB120469847E26D20239340C9
:1018B000334255D02268126812F0100F50D0BB602E
:1018C00094F83530DBB2052B0ED023681A6812F479
:1018D000802F33D01B6813F4002F2AD1636C002BA8
:1018E0003ED0204698473BE02268136823F0160359
:1018F00013602268536923F080035361236CA3B102
:101900002268136823F008031360E26D3F239340BD
:10191000BB60002384F83430012384F83530236D14
:10192000002B3FD0204698473CE0A36C002BE7D12A
:10193000EBE7E36BA3B12046984711E01A6812F475
:10194000807F09D11A6822F010021A60002384F8FF
:101950003430012384F83530E36B0BB120469847CF
:10196000636DFBB1636D13F0010F17D0052384F88D
:1019700035302268136823F001031360019B0133A3
:101980000193AB4204D823681B6813F0010FF5D113
:10199000002384F83430012384F83530E36C0BB134
:1019A0002046984703B0F0BD08000020B5814E1BCB
:1019B00000230F2B00F2D180F0B583B039E006226E
:1019C00000E00022AA403A430234644D45F8242046
:1019D000634A1468F24302EA04054F6817F4803F33
:1019E00001D046EA04055E4C2560646802EA0405FD
:1019F0004F6817F4003F01D046EA0405584C656073
:101A0000A46802EA04054F6817F4801F01D046EA73
:101A10000405534CA560E46822404D6815F4001F8E
:101A200001D046EA04024E4CE26001330F2B00F273
:101A3000928001229A400C6804EA0206B242F4D174
:101A40004C68651E012D03D9112C01D0122C12D126
:101A500085685F000324BC4025EA0405CC68BC40CF
:101A60002C438460456825EA02054C68C4F30012E3
:101A70009A402A434260C4685F000322BA40D243BE
:101A800014408D68BD402543C5604C68022C01D0D0
:101A9000122C13D1DD08083550F825E003F00704B7
:101AA0004FEA840C0F2404FA0CF42EEA040E0C699D
:101AB00004FA0CF444EA0E0440F82540046822407D
:101AC0004C6804F00304BC40224302604A6812F0F0
:101AD000805FAAD000220192224A546C44F48044D0
:101AE0005464526C02F480420192019A9C08A51C35
:101AF0001A4A52F8257003F0030295000F22AA40FB
:101B000027EA0207184A90423FF45BAF02F5806271
:101B1000904216D002F58062904214D002F58062A5
:101B2000904212D002F58062904210D002F580629D
:101B300090420ED002F5806290423FF440AF0722FF
:101B400040E701223EE702223CE703223AE7042273
:101B500038E7052236E703B0F0BD70470038014092
:101B6000003C0140003802400000024012B9090464
:101B7000816170478161704710B582B00023019385
:101B8000194B1A6C42F080521A641B6C03F080539C
:101B90000193019B154B01221A60FFF7EFF90446F0
:101BA000134B5B6813F4803F08D1FFF7E7F9001B84
:101BB000B0F57A7FF4D9032002B010BD0D4B01229D
:101BC0001A60FFF7DBF90446094B5B6813F4003F2A
:101BD00007D1FFF7D3F9001BB0F57A7FF4D90320C2
:101BE000EAE70020E8E700BF0038024040000E426C
:101BF0000070004044000E42002800F09E8070B546
:101C00000446504B1B6803F00F038B4209D2CBB242
:101C10004C4A1370136803F00F038B4201D001206C
:101C200070BD236813F0020F17D013F0040F04D017
:101C3000454A936843F4E0539360236813F0080F18
:101C400004D0414A936843F4604393603E4A9368EA
:101C500023F0F003A068034393600D46236813F05C
:101C6000010F32D06368012B21D09A1E012A25D999
:101C7000354A126812F0020F61D033498A6822F0A7
:101C8000030213438B60FFF779F906462E4B9B68DE
:101C900003F00C036268B3EB820F16D0FFF76EF906
:101CA000801B41F288339842F0D90320B8E7264AD6
:101CB000126812F4003FE0D10120B1E7224A126815
:101CC00012F0007FD9D10120AAE71E4B1B6803F058
:101CD0000F03AB4209D9EAB21A4B1A701B6803F022
:101CE0000F03AB4201D001209AE7236813F0040FE1
:101CF00006D0154A936823F4E053E1680B439360E0
:101D0000236813F0080F07D00F4A936823F4604349
:101D1000216943EAC103936000F044F80A4B9B68D1
:101D2000C3F30313094AD35CD840094B1860094B2D
:101D30001868FFF7D9F8002072E7012070470120EA
:101D40006EE700BF003C02400038024048830008B4
:101D50000800002004000020014B1868704700BFF5
:101D60000800002008B5FFF7F7FF044B9B68C3F39A
:101D70008223034AD35CD84008BD00BF003802402C
:101D80005883000808B5FFF7E7FF044B9B68C3F3CF
:101D90004233034AD35CD84008BD00BF003802403C
:101DA000588300082DE9F04B5C4B9B6803F00C0353
:101DB000082B07D00C2B5BD0042B00F0AD805848CB
:101DC000BDE8F08B554B5A6802F03F025B6813F494
:101DD000800F2AD0514B5B68C3F388131E4600273F
:101DE0005C010025E41A65EB0705A90141EA94614D
:101DF000A001001B61EB0501CB0043EA5073C40056
:101E0000A01943EB07014B0243EAD053440220469A
:101E100019460023FEF7E8FE404B5B68C3F301431D
:101E200001335B00B0FBF3F0CAE73C4B5B68C3F3E4
:101E300088131E4600275C010025E41A65EB0705A0
:101E4000A90141EA9461A001001B61EB0501CB00EF
:101E500043EA5073C400A01943EB07018B0243EA25
:101E600090538402204619460023FEF7BDFED3E7B7
:101E70002A4B5A6802F03F025B6813F4800F28D0A7
:101E8000264B5B68C3F388131E4600275C010025C0
:101E9000E41A65EB0705A90141EA9461A001001B62
:101EA00061EB0501CB0043EA5073C400A01943EB7A
:101EB00007014B0243EAD05344022046194600234F
:101EC000FEF792FE154B5B68C3F30273B0FBF3F0B1
:101ED00076E7124B5B68C3F388131E4600275C014C
:101EE0000025E41A65EB0705A90141EA9461A00108
:101EF000001B61EB0501CB0043EA5073C400A0193D
:101F000043EB07018B0243EA9053840220461946B3
:101F10000023FEF769FED5E7024851E7003802408A
:101F20000024F40000127A0070B582B00446036801
:101F300013F0010F41D0A64B9B6803F00C03042B58
:101F400032D0A34B9B6803F00C03082B27D0A04B87
:101F50009B6803F00C030C2B59D06368B3F5803FEA
:101F60005BD0B3F5A02F5ED0994B1A6822F4803273
:101F70001A601A6822F480221A606368002B5CD011
:101F8000FEF7FCFF0546924B1B6813F4003F14D18B
:101F9000FEF7F4FF401B6428F5D903209DE18C4B2C
:101FA0005B6813F4800FD2D0894B1B6813F4003F99
:101FB00003D06368002B00F08D81236813F0020FBB
:101FC00067D0834B9B6813F00C0F4AD0804B9B6803
:101FD00003F00C03082B3FD07D4B9B6803F00C03F0
:101FE0000C2B48D0E368002B74D07A4B01221A6086
:101FF000FEF7C4FF0546764B1B6813F0020F60D155
:10200000FEF7BCFF401B0228F5D9032065E1704BA9
:102010005B6813F4800FA0D0C6E76D4A136843F4E1
:1020200080331360A9E76A4B1A6842F480221A6071
:102030001A6842F480321A609FE7FEF79FFF054658
:10204000634B1B6813F4003FB7D0FEF797FF401BAC
:102050006428F5D9032040E15D4B5B6813F4800FE1
:10206000BAD15B4B1B6813F0020F0AD0E368012B57
:1020700007D0012031E1564B5B6813F4800FB1D1DA
:10208000EFE7534A136823F0F803216943EAC103D9
:102090001360236813F0080F40D0636963B34E4B9D
:1020A00001221A60FEF76AFF0546494B5B6F13F089
:1020B000020F33D1FEF762FF401B0228F5D903203F
:1020C0000BE1434A136823F0F803216943EAC10393
:1020D0001360DEE73F4B00221A60FEF74FFF054614
:1020E0003B4B1B6813F0020FD3D0FEF747FF401B9A
:1020F0000228F5D90320F0E0374B00221A60FEF7E2
:102100003DFF0546324B5B6F13F0020F06D0FEF722
:1021100035FF401B0228F5D90320DEE0236813F0C9
:10212000040F79D02A4B1B6C13F0805F33D100234E
:102130000193274B1A6C42F080521A641B6C03F017
:1021400080530193019B0125244B1B6813F4807F6E
:1021500023D0A368012B34D0052B41D01C4B1A6F20
:1021600022F001021A671A6F22F004021A67A368AC
:10217000002B3FD0FEF702FF0646154B1B6F13F0F6
:10218000020F48D1FEF7FAFE801B41F288339842D5
:10219000F3D90320A1E00025D6E7104A136843F4E1
:1021A00080731360FEF7EAFE06460C4B1B6813F4BF
:1021B000807FCED1FEF7E2FE801B0228F5D90320F6
:1021C0008BE0034A136F43F001031367CFE700BFAF
:1021D0000038024000004742800E47420070004035
:1021E000404B1A6F42F004021A671A6F42F0010264
:1021F0001A67BCE7FEF7C2FE06463A4B1B6F13F0A8
:10220000020F08D0FEF7BAFE801B41F288339842D5
:10221000F3D9032061E0E5B9A369002B5CD0314A12
:10222000926802F00C02082A59D0022B17D02E4BCC
:1022300000221A60FEF7A2FE04462A4B1B6813F028
:10224000007F45D0FEF79AFE001B0228F5D9032037
:1022500043E0244A136C23F080531364DCE7224BE1
:1022600000221A60FEF78AFE05461E4B1B6813F01B
:10227000007F06D0FEF782FE401B0228F5D903201E
:102280002BE0E369226A1343626A43EA8213A26A7B
:102290005208013A43EA0243E26A43EA0263226BCC
:1022A00043EA02730F4A53600F4B01221A60FEF794
:1022B00065FE04460B4B1B6813F0007F06D1FEF74A
:1022C0005DFE001B0228F5D9032006E0002004E093
:1022D000002002E0012000E0002002B070BD0120DB
:1022E000FBE700BF003802406000474230B4036A99
:1022F00023F001030362056A4268846924F07304D1
:102300000B681C4325F002058B682B43104DA84237
:1023100003D005F58065A84205D123F00803CD68F8
:102320002B4323F004030A4DA84203D005F5806532
:10233000A84205D122F440724D6915438A692A43A7
:10234000426084614A684263036230BC704700BFE8
:102350000000014030B4036A23F480730362036A0F
:102360004268C46924F073040D682C4323F400739D
:102370008D6843EA0523124DA84203D005F5806518
:10238000A84206D123F40063CD6843EA052323F471
:1023900080630B4DA84203D005F58065A84207D1A4
:1023A00022F440524D6942EA05128D6942EA051253
:1023B0004260C4614A68C263036230BC704700BFB8
:1023C0000000014030B4036A23F480530362036ABF
:1023D0004468C26922F4E6420D6842EA052223F409
:1023E00000538D6843EA0533094DA84203D005F533
:1023F0008065A84204D124F480444D6944EA8514E0
:102400004460C2614A680264036230BC704700BF26
:1024100000000140704710B5846B012384F83D3003
:10242000636A83420BD0A36A834210D0E36A83427B
:1024300010D0236B834204D10823237701E00123CA
:1024400023772046FFF7E6FF0023237710BD022302
:102450002377F6E704232377F3E7704710B5846BFF
:10246000012384F83D30636A83420BD0A36A834220
:1024700010D0E36A834210D0236B834204D1082337
:10248000237701E0012323772046FFF7E6FF0023AF
:10249000237710BD02232377F6E704232377F3E79E
:1024A000704708B5806B012380F83D30FFF7F8FFD7
:1024B00008BD00000368304A904212D0B0F1804F4E
:1024C0000FD0A2F57C4290420BD002F58062904280
:1024D00007D002F58062904203D002F57842904224
:1024E00003D123F070034A681343234A90422AD051
:1024F000B0F1804F27D0A2F57C42904223D002F564
:10250000806290421FD002F5806290421BD002F59B
:102510007842904217D002F57052904213D002F5E3
:10252000806290420FD002F5806290420BD0A2F5FB
:102530009832904207D002F58062904203D002F5B3
:102540008062904203D123F44073CA68134323F09E
:1025500080034A69134303608B68C3620B6883621C
:10256000054B984203D003F58063984201D10B6973
:10257000036301234361704700000140A8B110B517
:10258000044690F83D305BB1022384F83D30211DB4
:102590002068FFF78FFF012384F83D30002010BD35
:1025A00080F83C3000F0B0FDEEE7012070470000FD
:1025B00030B4036A23F010030362036A446882693B
:1025C00022F4E6420D6842EA052223F020038D68DA
:1025D00043EA0513114DA84203D005F58065A842D2
:1025E00006D123F08003CD6843EA051323F04003AE
:1025F0000A4DA84203D005F58065A84207D124F40E
:1026000040644D6944EA85048D6944EA8504446068
:1026100082614A688263036230BC704700000140F7
:1026200038B590F83C30012B66D00D4604460123A6
:1026300080F83C30022380F83D300C2A1AD8DFE8BD
:1026400002F0071919192019191934191919470015
:102650000068FFF74BFE2268936943F0080393611B
:102660002268936923F004039361226893692969BE
:102670000B439361012384F83D30002084F83C0033
:1026800038BD0068FFF794FF2268936943F4006344
:1026900093612268936923F480639361226893694C
:1026A000296943EA01239361E4E70068FFF752FEDA
:1026B0002268D36943F00803D3612268D36923F009
:1026C0000403D3612268D36929690B43D361D1E73D
:1026D0000068FFF777FE2268D36943F40063D36193
:1026E0002268D36923F48063D3612268D36929699E
:1026F00043EA0123D361BDE70220C1E710B401F032
:102700001F01042303FA01F4036A23EA04030362AA
:10271000036A8A40134303625DF8044B704700006C
:1027200070B590F83D40E4B2022C6ED090F83D4078
:10273000E4B2012C1DD016460D460446042938D0BB
:1027400008294CD0F1B1042229462068FFF7D6FFB2
:102750002268536C43F4004353642268936803F087
:102760000703062B59D0136843F0010313600020C0
:1027700070BD1AB1022480F83D40DCE7002BF9D08F
:102780000120F5E7426A2649D163426A254911646E
:10279000426A2549D164026834323146406AFEF704
:1027A000E3FF002833D12268D36843F40073D36079
:1027B000C9E7826A1A49D163826A1A491164826A36
:1027C0001949D164026838323146806AFEF7CCFF7D
:1027D000F8B92268D36843F48063D360B3E7C26A70
:1027E0000F49D163C26A0F491164C26A0E49D164AC
:1027F00002683C323146C06AFEF7B6FF58B922681B
:10280000D36843F40063D3609DE70220B0E7012062
:10281000AEE70120ACE70120AAE70020A8E700BF4F
:10282000172400085D240008A324000890F83C3019
:10283000012B3BD030B4012380F83C30022380F8D8
:102840003D3003685C689D6824F070040A68224388
:102850005A600368164A93421AD0B3F1804F17D0DA
:10286000A2F57C42934213D002F5806293420FD0CE
:1028700002F5806293420BD002F57842934207D072
:1028800002F57052934203D0A2F59432934204D1E0
:1028900025F080054A6815439D60012380F83D308E
:1028A000002380F83C30184630BC70470220704747
:1028B0000000014090F83C30012B22D0012380F829
:1028C0003C30CB6823F440738A68134323F480635D
:1028D0004A68134323F400630A68134323F48053C4
:1028E0000A69134323F400534A69134323F48043D2
:1028F000CA69134302685364002380F83C301846C9
:1029000070470220704700002DE9F04B0446026832
:10291000136923F44053C1680B4313618368026950
:10292000134342691343C2691A430168CB6823F415
:10293000164323F00C031343CB600268536923F45E
:10294000407381690B435361C369B3F5004F3BD0BA
:102950000368714A934200F0AB8002F580629342B3
:1029600000F0A680FFF7FEF94FF00009061849EBCA
:10297000090716EB000B47EB090C4FEACC0343EABF
:102980005B734FEACB0293469C4663689A009B0FA9
:1029900010EB0B0049EB0C01FEF726F95F4DA5FB90
:1029A00000325109642202FB110213013233A5FBEC
:1029B00003235B0903F0F00202EB011203F00F03A3
:1029C000216813448B60A4E00368534A934239D0D2
:1029D00002F58062934235D0FFF7C4F983464FF089
:1029E000000C06184CEB0C0716EB000847EB0C0923
:1029F0004FEAC90343EA58734FEAC8029046994622
:102A000062680021921841EB01031BEB08004CEBBC
:102A10000901FEF7E9F8414DA5FB00325109642296
:102A200002FB1102D3003233A5FB03235B095A00DA
:102A300002F4F87202EB011203F007032168134459
:102A40008B6066E0FFF79EF980464FF0000906189C
:102A500049EB090716EB000B47EB090C4FEACC03D7
:102A600043EA5B734FEACB0293469C4662680021BF
:102A7000921841EB010318EB0B0049EB0C01FEF738
:102A8000B3F8264DA5FB00325109642202FB110266
:102A9000D3003233A5FB03235B095A0002F4F8721A
:102AA00002EB011203F00703216813448B6030E04E
:102AB000FFF768F94FF00009061849EB090716EB14
:102AC000000B47EB090C4FEACC0343EA5B734FEA78
:102AD000CB0293469C4663689A009B0F10EB0B0059
:102AE00049EB0C01FEF780F80C4DA5FB00325109B3
:102AF000642202FB110213013233A5FB03235B099D
:102B000003F0F00202EB011203F00F0321681344FB
:102B10008B60BDE8F08B00BF001001401F85EB51BA
:102B200058B310B5044690F839300BB3242384F819
:102B300039302268D36823F40053D3602046FFF76E
:102B4000E3FE2268136923F49043136122685369FA
:102B500023F02A0353612268D36843F40053D360FF
:102B60000020E063202384F8393084F83A3010BD27
:102B700080F8383000F0B4FBD8E70120704700003F
:102B800000B585B000230093019302930393164888
:102B9000164A02604FF4803242604FF00072826049
:102BA00001220261037680F82030C36210498162FD
:102BB000C360C26180F830304261FEF793FA60B9B9
:102BC0000023009301220192029369460648FEF712
:102BD000ADFB28B905B05DF804FB00F019FAEFE78A
:102BE00000F016FAF6E700BF4C0A00200020014072
:102BF0000100000F00B589B00023039304930593EF
:102C000006930793026803F1804303F590339A42D9
:102C100002D009B05DF804FB0021019103F58C336B
:102C20005A6C42F480725A645A6C02F480720192B7
:102C3000019A02911A6B42F001021A631B6B03F0B6
:102C400001030293029B012303930323049303A92B
:102C50000148FEF7ADFEDCE70000024000B583B09E
:102C600000210191094B1A6B42F480021A631B6B1D
:102C700003F480030193019B0A464520FEF73AFCCA
:102C80004520FEF76BFC03B05DF804FB0038024002
:102C900030B58BB0002405940694079408940994E9
:102CA0000194264B1A6B42F004021A631A6B02F06D
:102CB00004020192019A02941A6B42F080021A6394
:102CC0001A6B02F080020292029A03941A6B42F08D
:102CD00001021A631A6B02F001020392039A049430
:102CE0001A6B42F002021A631B6B03F00203049397
:102CF000049B134D224620212846FEF737FF4FF450
:102D0000005305930F4B0693079405A90E48FEF751
:102D10004FFE022305930694079405A92846FEF763
:102D200047FE20230593012306930794089405A9E1
:102D30002846FEF73DFE0BB030BD00BF0038024014
:102D400000000240000021100008024000239342CE
:102D500023DA10B40CE000BF4FF06041096800298D
:102D6000F9D04FF06041087001332146934210DAE8
:102D70004C1C08784FF06041D1F8801E11F0010F13
:102D8000F2D04FF06041D1F8001E11F0010FEBD0EE
:102D9000E2E710465DF8044B7047104670470000AC
:102DA000DFED067A20EE270ADFED057A60EEA70A4E
:102DB00030EE200A034B83ED000A70478C2EBA3D9B
:102DC0002EBA683FD809002030B595B034220021D2
:102DD00007A800F011FB00240294039404940594C6
:102DE000069400941C4B1A6C42F080521A641B6CBF
:102DF00003F080530093009B0194184B1A6842F42F
:102E000040421A601B6803F440430193019B022572
:102E1000079501230A9310230B930D950E94082315
:102E20000F93B423109311951295139507A8FFF7EC
:102E30007BF8FEF7A1FE0F230293039504944FF451
:102E4000A05305934FF480530693052102A8FEF783
:102E5000D3FE15B030BD00BF003802400070004006
:102E60002DE9F04387B0FEF763F8FFF7ADFFFFF7FA
:102E70000FFFFFF7F3FEFFF783FE00F0B1F900F05C
:102E800015FA60E05A4CD4E90689D4E90823404693
:102E90004946FDF7D1FBD4E90A6732463B46FDF7C8
:102EA00015FA47A3D3E90023FDF710FA0022514B8E
:102EB000FDF7ECFC44A3D3E90023FDF7BDFB41EC97
:102EC000100B04F01DFA42A3D3E9002351EC100BC0
:102ED000FDF7B2FB484BC3E90001FDF75DFE82B28E
:102EE0002286464B43F825200492CDE90289CDE99C
:102EF00000672946424800F087FA37A3D3E9002348
:102F0000D4E90A01FDF7E2F9C4E90A0134A3D3E9DF
:102F10000023D4E90801FDF7D9F9C4E908013220FA
:102F2000FEF732F80135FF2DACDD314B00200021DA
:102F3000C3E90A01C3E908014FF480732F4A002155
:102F40003048FFF7EDFB304C2046FEF7F7F86421E0
:102F50002046FEF78DF92046FEF7E5F9244C606027
:102F6000D4ED020A07EE900AB8EE670AFFF718FFE1
:102F700084ED030A84ED020AF2EE047A80EE277AE9
:102F8000F3EE097A77EE277A17EE900AFDF7FCFA4E
:102F900002460B46C4E90423616800911B4800F017
:102FA00033FA6420FDF7F0FF0FA3D3E90023D4E93F
:102FB0000401FDF741FBC4E906010025B3E700BFAA
:102FC000182D4454FB21F93F182D4454FB2109408E
:102FD000FC1873D7D292AB40A089B0E1E995D63FF7
:102FE0005D892131718F143F182D4454FB21194004
:102FF000D809002000806640980A0020A00A00201E
:103000008C830008000F00204C0A00206083000819
:103010007047000000B583B0002100910C4B5A6C42
:1030200042F480425A645A6C02F480420092009A40
:1030300001911A6C42F080521A641B6C03F08053A9
:103040000193019B0720FEF743FA03B05DF804FBF0
:10305000003802407047FEE7FEE7FEE7FEE77047F4
:103060007047704708B5FDF77DFF08BD08B50248F9
:10307000FEF7B0FB08BD00BFA00E002070B50D46E6
:103080001646002404E0AFF30080287001340135B7
:10309000B442F8DB304670BD08B503460B4A1268EF
:1030A00042B10A4A106803446A46934206D8074A66
:1030B000136008BD054A06491160F2E700F072F995
:1030C0000C2303604FF0FF30F3E700BF0C0A002031
:1030D000900F00204FF0FF3070474FF400534B60CB
:1030E000002070470120704700207047054BD3F83F
:1030F000882042F47002C3F888204FF000629A6082
:10310000704700BF00ED00E002681A4B9A4200D001
:10311000704710B582B0044600230193164A516CE3
:1031200041F001015164526C02F001020192019AD6
:103130001248134A0260436040228260C3604FF429
:10314000806202614FF4006242614FF4005282617A
:10315000C3614FF4003202624362FEF79FFA30B956
:10316000064B6362A362E3629C6302B010BDFFF78B
:103170004FFFF5E70000014000380240A00E00209C
:10318000A064024000B587B000230193029303932B
:103190000493059302680F4B9A4202D007B05DF882
:1031A00004FB002300930C4B1A6B42F001021A63DC
:1031B0001B6B03F001030093009B4FF440730193DA
:1031C000022302930123059301A90448FEF7F0FBB3
:1031D000E4E700BF00000140003802400000024068
:1031E00010B592B000241094119409940A940B9491
:1031F0000C940D940E940F942022214601A800F007
:10320000FBF82848284B0360372343608460FF2382
:10321000C360046144618461FFF7B0F9002831D1D3
:1032200000231093119310A91E48FFF7FFFA0028FE
:103230002BD16023099300220A920B920C92042353
:103240000D930E920F9209A91648FFF7E9F9F8B904
:10325000042209A91348FFF7E3F9E0B90023019319
:1032600002930393049305934FF40052069208933C
:1032700001A90C48FFF71EFB80B90A48FFF782FF3F
:1032800012B010BDFFF7C4FECAE7FFF7C1FED0E7DA
:10329000FFF7BEFEDCE7FFF7BBFEDFE7FFF7B8FE98
:1032A000EBE700BF000F00200000014008B50A480E
:1032B0000A4B03604FF4E133436000238360C36033
:1032C00003610C2242618361C361FFF729FC00B9ED
:1032D00008BDFFF79DFEFBE7400F002000440040C3
:1032E00000B589B0002303930493059306930793D5
:1032F0000268154B9A4202D009B05DF804FB002128
:10330000019103F5FA331A6C42F400321A641A6C14
:1033100002F400320192019A02911A6B42F001020A
:103320001A631B6B03F001030293029B0C230393AC
:1033300002230493032306930723079303A9034857
:10334000FEF736FBD8E700BF004400400000024013
:10335000DFF834D0002103E00C4B5B5843500431BC
:103360000B480C4B42189A42F6D30B4A02E000235A
:1033700042F8043B094B9A42F9D3FFF7B7FE00F03D
:1033800017F8FFF76DFD7047000002204488000821
:1033900000000020B8090020B8090020900F00208C
:1033A000FEE70000014B1868704700BF0C000020CA
:1033B00070B50D4E0D4CA41BA4100025A54209D1DB
:1033C0000B4E0C4C04F0AEFFA41BA4100025A5422C
:1033D00005D170BD56F8253098470135EEE756F80F
:1033E000253098470135F2E738880008388800080A
:1033F000388800084088000802440346934200D100
:10340000704703F8011BF9E70FB407B5064904AB91
:10341000086853F8042B8168019300F009F803B0A1
:103420005DF804EB04B070470C00002000000000C1
:103430002DE9F04FD3B0884691461C461E46834680
:1034400002F0AAFB036816931846FCF731FF0D90B3
:10345000BBF1000F05D0DBF8383013B9584602F045
:1034600031FAD8F86430D80707D4B8F80C30990589
:1034700003D4D8F8580002F09FFBB8F90C309A0436
:1034800009D443F40053A8F80C30D8F8643023F47E
:103490000053C8F86430B8F80C301F0702D5D8F8CC
:1034A0001030A3B94146584601F074FA78B1D8F803
:1034B0006430DD0707D4B8F80C309C0503D4D8F885
:1034C000580002F07AFB4FF0FF330E931AE0B8F881
:1034D0000C3003F01A020A2A18D1B8F90E20002A7B
:1034E00014DBD8F86420D00705D4990503D4D8F8A4
:1034F000580002F062FB23464A464146584601F016
:1035000009FA0E900E9853B0BDE8F08F9FEDC87B7E
:103510000023CDE927338DED0A7BCDE9173329ACA4
:10352000269404930893129319930E934D462B46B9
:1035300013F8012B12B1252A40F0E480B5EB0907FE
:103540000ED0289B3B442893279B0133072BC4E9CB
:103550000097279300F3D88008340E9B3B440E93CA
:103560002B78002B01F0C2816B1C0C9300238DF88B
:103570007B304FF0FF350F939A460A270C9B1B7840
:1035800006930C9B01330C93069B203B5A2B00F2B5
:103590002F8601A252F823F09B370008F141000862
:1035A000F1410008AD370008F1410008F141000881
:1035B000F141000861370008F1410008F1410008BD
:1035C000B3370008CB370008F1410008C5370008C1
:1035D000CF370008F1410008033800080938000817
:1035E00009380008093800080938000809380008B7
:1035F00009380008093800080938000809380008A7
:10360000F1410008F1410008F1410008F1410008D2
:10361000F1410008F1410008F141000807390008B4
:10362000F141000871380008933800080739000894
:103630000739000807390008F1410008F141000886
:10364000F1410008F141000829380008F141000863
:10365000F1410008ED3D0008F1410008F14100088A
:10366000F1410008793E0008F14100085D40000882
:10367000F1410008F141000821370008F14100083C
:10368000F1410008F1410008F1410008F141000852
:10369000F1410008F1410008F14100080739000834
:1036A000F141000871380008973800080739000810
:1036B00007390008073900083D3800089738000826
:1036C00065380008F141000857380008F14100084A
:1036D000A73D0008F13D0008593E00086538000884
:1036E000F1410008793E00087D350008614000087E
:1036F000F1410008F14100089F400008F141000835
:103700007D3500081D4612E726AA4146584603F0BB
:103710006AF8002840F0618129AC1EE71E462DE7BB
:10372000454B18931AF0200F00F0BC84073626F0A2
:10373000070606F10803D6E9006709931AF0010F9E
:103740000AD056EA070307D030238DF87C30069B59
:103750008DF87D304AF0020A2AF4806A022355E38C
:10376000584602F019FA436819931846FCF7A0FD71
:103770001290584602F010FA83680893129B002BAF
:103780003FF4FCAE089B002B3FF4F8AE1B78002BF7
:103790003FF4F4AE4AF4806AF0E69DF87B30002BEB
:1037A0007FF4ECAE20238DF87B30E7E64AF0010A87
:1037B000E4E632680F92002A06F10403AEDA5242C0
:1037C0000F921E464AF0040AD8E62B23EBE70C9A28
:1037D0000C9B127806922A2A03F101030FD1356857
:1037E0000C9345EAE5750436C8E607FB052513F892
:1037F000012B0692069A303A092AF6D9C3E600252B
:10380000F8E74AF0800AB9E600220C9B0F92069A6C
:103810000F99303A07FB01220F9213F8012B069201
:10382000303A092AF3D9AEE64AF0080AA6E600BF04
:1038300000000000000000000D8400080C9B1B78B5
:10384000682B01BF0C9B01330C934AF4007A18BF1C
:103850004AF0400A92E60C9B1B786C2B05D10C9B1E
:1038600001330C934AF0200A88E64AF0100A85E6F4
:10387000331D0993002033688DF8E4308DF87B0008
:103880000390012510900746079006460DF1E409C4
:103890000BE34AF0100A1AF0200F21D0073626F069
:1038A000070606F10803D6E900670993002E77F1B1
:1038B000000306DA76424FF02D0367EB47078DF8D9
:1038C0007B306B1C40F00184002F08BF0A2E80F073
:1038D00031840DF5A479303609F8016D00F018BC7B
:1038E000331D1AF0100F099302D03668F717DDE781
:1038F0001AF0400F366801D036B2F7E71AF4007FAD
:1039000018BF76B2F2E7073626F0070696ED007B81
:1039100006F108038DED0A7B09930A9B1A930B9B12
:1039200023F000431B934FF0FF32B04BDDE91A0147
:10393000FDF71CF9F8B94FF0FF32AC4BDDE91A0185
:10394000FDF7F6F8B8B900220023DDE90A01FDF71A
:10395000E5F810B12D238DF87B30A54AA54B0699CB
:103960004729CCBF9146994600232AF0800A039349
:1039700003251093D2E3DDE90A2310461946FDF72B
:10398000F5F840B10B9B9C4A002BBCBF2D238DF852
:103990007B309A4BE3E7069B23F02003412B0793F0
:1039A0002DD130238DF87C30069B612B14BF58231A
:1039B0007823632D8DF87D304AF0020A2ADD691CD8
:1039C000584602F067F98146002840F02181B8F896
:1039D0000C3043F04003A8F80C30D8F86430D80716
:1039E00007D4B8F80C30990503D4D8F8580002F081
:1039F000E4F8B8F80C305A067FF584AD63E56A1C2C
:103A000000F00881079B472B02D1002D00F00581B3
:103A1000039002E003900DF1E4094AF480731093DF
:103A20000B9B002B80F2FC800A9B14930B9B03F1F1
:103A3000004315932D231393079B412B40F00481E2
:103A400020A89DED140B02F023FE00224FF07F53BF
:103A500051EC100BFCF7F0FD00220023CDE904012E
:103A6000FDF752F808B101232093654F654B069A84
:103A7000612A08BF1F4611974E466F1E0022624BF7
:103A8000DDE90401FCF7D8FDCDE90401FDF784F878
:103A90001C90FCF767FD02460B46DDE90401FCF7CC
:103AA00013FC119B1C9A1D979B5C06F8013B7B1C29
:103AB000CDE9040106D000220023013FFDF724F8E0
:103AC0000028DBD00022514BDDE90401FDF744F86A
:103AD00060B900224D4BDDE90401FDF715F800281F
:103AE00000F0AD801C9BDF0740F1A980119B24965C
:103AF000D97B3020249A531E249312F8013C8B4228
:103B000000F09480392B0BBF119B01339B7ADBB201
:103B100002F8013C3346A3EB09030493079B209E64
:103B2000472B40F0D680F01C02DBB54280F2FC80CF
:103B3000069B023B069306999DF8182021F0200170
:103B4000412908BF0F3206F1FF3306BFD2B201216F
:103B50000021002B2093B8BFC6F101038DF8882007
:103B6000B4BF2D222B22092B8DF8892040F3C88069
:103B70000DF197020A2593FBF5F005FB1033303366
:103B8000092802F8013C02F1FF31034600F3B1803D
:103B9000303301F8013C023A0DF18A030DF1970030
:103BA00082421946C0F0A780049A22ABCB1A012AA0
:103BB000179303EB020502DC1AF0010F01D00D9BF5
:103BC0001D442AF48063002743F480731093079701
:103BD0003E46139B002B00F017832D23DDF840A0F9
:103BE0008DF87B30002310935FE100BFFFFFEF7F74
:103BF000F0830008EC830008F8830008F4830008D1
:103C00000D840008FC830008000030400000E03F05
:103C1000039002E703900625FFE603950125FCE6E5
:103C20009DED0A7B00238DED147B04E702F8010C67
:103C300060E703F8011BF21A002AFADA6BE71D9A13
:103C4000334630211644F6E7079B462B04D0452B1C
:103C50003AD16E1C022101E02E46032124AB0193D0
:103C600021AB0093324620AB9DED140B584600F07B
:103C700087FF079B472B814602D11AF0010F26D000
:103C8000079B462B09EB06070FD199F80030302B24
:103C900009D100220023DDE91401FCF735FF10B93A
:103CA000C6F101062096209B1F4400220023DDE977
:103CB0001401FCF729FF48B93022249B9F4206D902
:103CC000591C24911A70F8E72E46C3E72497249BC9
:103CD00021E7079B462B7FF42EAF002E1DDD15B983
:103CE0001AF0010F34D00D9BF3181D446623069380
:103CF00033E00A463FE712F8011B03F8011B4FE7C8
:103D000041B930228DF88A200DF18B023033511CDD
:103D1000137049E70DF18A02F8E715B91AF0010F9F
:103D200018D00D9B0133E0E7049BB34206DC1AF088
:103D3000010F25D00D9BF5186723D8E7049B0D9A3A
:103D4000002E03EB0205F7DCC6F101031D44F3E787
:103D50003546CBE76623069301251AF48063079363
:103D60001FD00027002E07977FF733AF089B1B78E3
:103D7000FF2B07D1079B129A3B4402FB035528E710
:103D80003546D9E7B342F5DAF61A089B5B7833B1CA
:103D9000079B01330793089B01330893E6E701373C
:103DA000E4E7079F15E732461AF0200F52F8043B6C
:103DB000099209D00E9A1046D117C3E90001099E55
:103DC000DDF83090FFF7B2BB1AF0100F02D00E9A58
:103DD0001A60F4E71AF0400F02D00E9A1A80EEE74C
:103DE0001AF4007FF3D00E9A1A70E8E74AF0100A2E
:103DF0001AF0200F1ED0073626F0070606F108033A
:103E0000D6E9006709932AF4806A002300228DF81E
:103E10007B206A1C00F05C81524656EA07012AF0BA
:103E2000800A40F05581002D00F0D881012B40F030
:103E300052814EE5331D1AF0100F099301D03668F8
:103E400003E01AF0400F02D036880027DBE71AF4AF
:103E5000007FF4D03678F8E7331D099347F6300336
:103E6000ADF87C307822B04B189336680692002764
:103E70004AF0020A0223C9E7331DD6F800900993DD
:103E80000026691C8DF87B6000F0E1802A463146EF
:103E90004846FCF7BDF90390002800F0B981A0EB7B
:103EA00009050396109637460796109BAB42B8BF9C
:103EB0002B4611939DF87B3013B1119B0133119365
:103EC0001AF002031C931EBF119B023311931AF0C8
:103ED00084031D9322D10F9B119A9B1A002B1393DD
:103EE0001CDD1398DDE9272310289048206002F19B
:103EF000010204F1080100F38E811398606003440D
:103F0000072ACDE9272340F39B8126AA414658463C
:103F100002F069FC002840F0C78429AC9DF87B3092
:103F200073B10DF17B03236001236360289B013390
:103F30002893279B0133072B279300F383810834B1
:103F40001C9B6BB11FAB236002236360289B023371
:103F50002893279B0133072B279300F37D81083497
:103F60001D9B802B22D10F9B119A9B1A002B139320
:103F70001CDD1398DDE9272310286D48206002F12D
:103F8000010204F1080100F3718113986060034499
:103F9000072ACDE9272340F37E8126AA41465846C9
:103FA00002F021FC002840F07F8429AC109B5B1BB1
:103FB000002B10931CDD1098DDE9272310285C48A6
:103FC000206002F1010204F1080100F366811098FB
:103FD00060600344072ACDE9272340F3738126AAB2
:103FE0004146584602F0FFFB002840F05D8429ACB2
:103FF000289B10931AF4807F40F06681C4E90095F5
:104000001D442895279B0133072B279300F3A2819A
:1040100008341AF0040F40F02984DDE90E321199BA
:104020008A42ACBF9B185B180E93289B3BB126AA13
:104030004146584602F0D7FB002840F03584002363
:104040002793039B002B40F04B8429ACB7E64846EE
:10405000FCF72EF90396054633468AE44AF0100A27
:104060001AF0200F09D0073626F0070606F10803DC
:10407000D6E9006709930123C8E6331D1AF0100F33
:10408000099301D0366803E01AF0400F02D0368859
:104090000027F0E71AF4007FF4D03678F8E7224BD7
:1040A000FFF73FBB331D1AF0100F099301D036689C
:1040B00003E01AF0400F03D036880027FFF73EBB1D
:1040C0001AF4007FF3D03678F7E752460123A4E6CE
:1040D000012B3FF4F9AB022B6ED052ABF10841EA51
:1040E0004771F80806F0070207460E46303256EAD6
:1040F000070103F1FF3903F8012C13D11AF0010F66
:1041000006D0302A04D0302209F8012CA3F102098C
:1041100052AB1095A3EB0905002303931F460793A9
:104120001E46C2E64B46D9E7FC83000820840008FF
:10413000308400080023049352AB03930AF4806395
:104140000793039B0A2203F1FF39304600233946C7
:10415000FCF74AFD039B303203F8012C049B01332A
:104160000493079BD3B1089B049A1B789A4215D1FC
:10417000FF2A13D0002F08BF0A2E0FD3129B1999C4
:10418000A9EB03091A46484602F00BFB089B5B7833
:104190001BB1089B0133089300230493002330468E
:1041A00039460A22FCF720FD06460F4656EA070369
:1041B000AED0CDF80C90C4E70DF5A47906F00F034E
:1041C000189AD35C09F8013D330943EA07733A09A9
:1041D0001E46174656EA0703F0D199E70DF5A47974
:1041E000002B95D1D60744BF302309F8013D8FE756
:1041F000069B002B00F07A8300208DF8E4308DF8C8
:104200007B000996FFF73CBBDDF840A0139BEAE476
:10421000039BFFF7AEBB10200344072A6060CDE983
:10422000272308DD26AA4146584602F0DCFA00287A
:1042300040F03A8329A9139B103B13930C4650E698
:104240000C466BE626AA4146584602F0CCFA0028F6
:1042500040F02A8329AC73E626AA4146584602F06C
:10426000C2FA002840F0208329AC79E610200344EC
:10427000072A6060CDE9272308DD26AA4146584673
:1042800002F0B1FA002840F00F8329A9139B103BDC
:1042900013930C466DE60C4688E610200344072A6B
:1042A0006060CDE9272308DD26AA4146584602F082
:1042B0009AFA002840F0F88229A9109B103B10932D
:1042C0000C4678E60C4693E6069B652B40F3348259
:1042D00000220023DDE90A01FCF716FC002869D062
:1042E0006E4B109D236001231D446360279B28951E
:1042F0000133072B279337DC0834209B049A934221
:1043000003DB1AF0010F3FF484AE169B23600D9B74
:1043100063600D9A289B13442893279B0133072B36
:1043200027932BDC0834049B5D1E002D7FF771AEB4
:104330005B4E1027DDE92732102D03F1010304F154
:104340000801266024DC6560072B1544CDE927357C
:1043500040F3898226AA4146584602F044FA0028D2
:1043600040F0A28229AC54E626AA4146584602F003
:104370003AFA002840F0988229ACBEE726AA4146C6
:10438000584602F030FA002840F08E8229ACCAE785
:104390001032072B6760CDE9273208DD26AA414697
:1043A000584602F020FA002840F07E8229A9103DEC
:1043B0000C46BFE7209B002B74DC384B109D23601C
:1043C00001231D446360279B28950133072B279306
:1043D0003EDC0834209B2BB9049B1BB91AF0010F5B
:1043E0003FF417AE169B23600D9B63600D9A289BCC
:1043F00013442893279B0133072B279332DC08347F
:10440000209D002D1BDA264E6D4223461027DDE944
:104410002721102D02F1010204F108041E602BDC9B
:104420005D60072A0D44CDE9272508DD26AA41460F
:10443000584602F0D8F9002840F0368229AC049B97
:104440006360049A289BC4F8009013442893D9E52C
:1044500026AA4146584602F0C6F9002840F02482B8
:1044600029ACB7E726AA4146584602F0BCF9002815
:1044700040F01A8229ACC3E71031072A5F60CDE90A
:10448000272108DD26AA4146584602F0ACF900284B
:1044900040F00A8229AC103D2346B8E71E8400088C
:1044A00030840008049BB342A8BF3346002B1D464E
:1044B0000BDDC4E90093109B2B442893279B013309
:1044C000072B279300F386800834002DACBF751BA3
:1044D0003546002D19DDDDE9273296482060102D84
:1044E00003F1010304F108017EDC6560072B15442C
:1044F000CDE9273540F38B8026AA4146584602F085
:1045000072F9002840F0D08129AC1AF4806F4E4433
:1045100009D0079B002B7CD1002F7CD1049B4B44FE
:104520009E4228BF1E46209B049A934202DB1AF04B
:10453000010F0ED0169B23600D9B63600D9A289B84
:1045400013442893279B0133072B279300F3DD8027
:104550000834049B049A09EB0305AB1B209D551BF3
:104560009D42A8BF1D46002D0BDD289B2B442893A0
:10457000279B0133072BC4E90065279300F3CF8005
:104580000834209B049A002DA2EB0303ACBF5D1BF3
:104590001D46002D7FF73DAD664E1027DDE9273221
:1045A000102D03F1010304F1080126607FF7CBAE63
:1045B0001032072B6760CDE9273208DD26AA414675
:1045C000584602F010F9002840F06E8129A9103DEC
:1045D0000C46E3E726AA4146584602F004F90028B3
:1045E00040F0628129AC70E710200244072B606024
:1045F000CDE9273208DD26AA4146584602F0F3F8F5
:10460000002840F0518129A9103D0C4663E70C4673
:104610007BE7002F49D0013F199B2360129B636009
:10462000129A289B13442893279B0133072B279327
:1046300042DC0834049B4B449A1B089B1B78934232
:10464000A8BF1346002B1D460ADDC4E90063289B62
:104650002B442893279B0133072B279336DC083400
:10466000089B1B78002DACBF5D1B1D46002D18DD7F
:10467000DDE927232F482060102D02F1010204F10B
:1046800008012DDC2B44072A6560CDE927233ADD9C
:1046900026AA4146584602F0A6F8002840F00481B8
:1046A00029AC089B1B781E4433E7089B013B089309
:1046B000079B013B0793AFE726AA4146584602F005
:1046C00092F8002840F0F08029ACB3E726AA4146D2
:1046D000584602F088F8002840F0E68029ACBFE791
:1046E00010200344072A6060CDE9272308DD26AAAD
:1046F0004146584602F077F8002840F0D58029A9B5
:10470000103D0C46B4E70C46CBE726AA4146584676
:1047100002F069F8002840F0C78029AC19E726AA02
:104720004146584602F05FF8002840F0BD8029ACB1
:1047300027E700BF30840008049A109D279B012AB8
:1047400005F1010503F1010304F1080602DC1AF08A
:10475000010F7DD00122072BC4F800906260CDE9E3
:10476000273508DD26AA4146584602F03CF80028C5
:1047700040F09A8029AE169B33600D9B73600D9AB2
:10478000289B13442893279B0133072B279331DC65
:104790000836049B00225C1EDDE90A010023FCF7B9
:1047A000B3F900282FD109F10103279A0499C6E92A
:1047B0000034289B0132013B0B44072ACDE9272313
:1047C0004FDD26AA4146584602F00DF800286BD16D
:1047D00029AE22AB3360179B7360179A289B134452
:1047E0002893279B0133072B27933FF7B3AD06F19F
:1047F00008040EE426AA4146584601F0F4FF0028BA
:1048000052D129AEC5E7002CE3DD404D1027DDE98C
:104810002732102C03F1010306F10801356007DC93
:104820007460072B1444CDE92734CADC0E46D0E768
:104830001032072B7760CDE9273206DD26AA4146E4
:10484000584601F0D0FF78BB29A9103C0E46DEE7A0
:104850000122072BC4F800906260CDE92735B8DD4E
:10486000AFE70836B5E70C46FFF7D3BB0F9B119AAD
:104870009D1A002D7FF7D1AB254E1027DDE9273299
:10488000102D03F10103266018DC6560072B154429
:10489000CDE927357FF7C1AB26AA4146584601F03E
:1048A000A2FF00283FF4B9AB039B002B3FF495A86F
:1048B0001946584601F096F8FFF78FB81032072BCB
:1048C0006760CDE9273202DC0834103DD6E726AA1E
:1048D0004146584601F087FF0028E5D129ACF4E7AE
:1048E0000399584601F07EF8FFF7AFBB289B1BB930
:1048F00000232793FFF771B826AA4146584601F0D6
:1049000072FF00287FF469A8F2E700BF3084000836
:1049100020840008F0B50C46ADF26C4D1F46898925
:10492000636E1993E389ADF80E3021F00201E3695B
:10493000ADF80C1007931AA9636A09931546002372
:1049400006460091049116A84FF4806102910591EA
:10495000069301F02FF92A463B4669463046FEF79A
:1049600067FD051E07DB6946304600F03FFF002863
:1049700018BF4FF0FF35BDF80C3016985B0642BFEC
:10498000A38943F04003A38101F015F928460DF2F5
:104990006C4DF0BD38B52A4B054618680C4618B169
:1049A000836B0BB900F08EFFB4F90C309AB211078B
:1049B00022D4D00607D409222A6043F04003A38101
:1049C0004FF0FF3034E0510712D5216B41B104F1B3
:1049D0004003994202D0284601F004F800232363E3
:1049E000A38923F02403A381002363602369236048
:1049F000A38943F00803A38123694BB9A38903F476
:104A00002073B3F5007F03D02146284601F002F958
:104A1000A28912F001030CD00023A36063695B42FA
:104A2000A361236953B9B4F90C3013F08000C4D1E9
:104A300038BD920758BF6369A360F2E70020F7E72B
:104A40000C000020024B13B1024800F005B870477B
:104A50000000000015590008002301461A461846B8
:104A600001F006BF2DE9F74F03690C69A3428046A8
:104A7000C0F28280013C01F114074FEA840C00F17E
:104A8000140657F8245056F8240006EB0C030135A1
:104A900007EB0C090193B0FBF5F595B34FF0000A55
:104AA0003846B646D34650F8042B93B205FB03A311
:104AB0004FEA134A9BB2ABEB0303120CDEF800B0D3
:104AC00005FB02A213FA8BF34FEA124A1FFA82FB8C
:104AD000DEF80020CBEB124202EB23429BB243EA0A
:104AE000024381454FEA224B4EF8043BDBD256F895
:104AF0000C3033B9019B043B9E421A4630D3C8F8B0
:104B00001040404601F0FEFC002825DB0135304610
:104B10004FF0000C57F8042BD0F800E093B2ACEB48
:104B20000303120C13FA8EF3C2EB1E4202EB234274
:104B30009BB243EA0243B9454FEA224C40F8043B9A
:104B4000E8D256F8242006EB84032AB9043B9E429F
:104B50001A460BD3C8F81040284603B0BDE8F08FC2
:104B60001268043B002ACAD1013CC5E71268043B25
:104B7000002AEFD1013CEAE70020EEE70000000048
:104B80002DE9F04F97B057EC106B0691016C0B922A
:104B900004461293209DCDE9006741B1426C4A6002
:104BA000012393408B6001F0E8FA002323643B1E4D
:104BB000B9BF23F00043019300232B60DDF804808C
:104BC000AF4BBCBF01222A6033EA080316D1129A08
:104BD00042F20F731360009B23B9C8F3130000283F
:104BE00000F04385219BDFF8ACB21BB10BF103034E
:104BF000219A1360584617B0BDE8F08FDDE90067D1
:104C00000022002330463946FBF77EFF814660B123
:104C1000129A01231360219B002B00F02285994BEF
:104C2000219A03F1FF3B1360E4E714AA15A947ECAE
:104C3000106B204601F0DDFCC8F30A550490002DEE
:104C40007CD0C7F3130343F07F5BB2464BF4401BA9
:104C5000A5F2FF35CDF84C9000228B4B50465946BB
:104C6000FBF732FB80A3D3E90023FBF7E5FC80A32D
:104C7000D3E90023FBF72AFB064628460F46FBF73D
:104C800071FC7DA3D3E90023FBF7D6FC02460B465B
:104C900030463946FBF71AFB06460F46FBF77CFF0A
:104CA00000228246002330463946FBF737FF48B1E1
:104CB0005046FBF757FC32463B46FBF725FF08B949
:104CC0000AF1FF3ABAF1160F59D8704901EBCA013F
:104CD000DDE90023D1E90001FBF73EFF002850D0B9
:104CE0000AF1FF3A00230F93149B5D1BB5F10108F5
:104CF00049BFC5F10103002305934FF0000858BFD9
:104D00000593BAF1000F3EDB0023D044CDF838A064
:104D10000793069B092B00F28D80052BC4BF043B33
:104D20000693069BA3F10203CCBF00250125032BAC
:104D300000F28C80DFE803F07A7C316EDDE91453F9
:104D40001D4405F23240202813DDC0F14000009BD5
:104D500008FA00F805F2124023FA00F048EA0000D1
:104D6000FBF7F0FB01238246A1F1F87B013D139391
:104D700072E7009BC0F1200003FA00F0F0E7012386
:104D8000B1E70F90B0E7059BA3EB0A030593CAF1C7
:104D90000003079300230E93BBE701230A930B9BA9
:104DA000002B56DD0293994600226264042202F130
:104DB00014009842616C51D9204601F0B9F9B9F15B
:104DC0000E0F8346206400F2E880002D00F0E5809D
:104DD0009DED007BBAF1000F8DED107B76DD2B4A47
:104DE0000AF00F0302EBC30393ED007B4FEA2A1690
:104DF000F0068DED087B67D5254BDDE91001D3E981
:104E00000823FBF743FDCDE9000106F00F0603255B
:104E10001F4F4EE001230A930B9B534403F10109FA
:104E200002934B46012BB8BF0123BDE70023B5E732
:104E30000023F0E70125002306930A954FF0FF3386
:104E400002939946002212230B92ADE701230A93A5
:104E5000F4E70123029399461A46F5E701316164AC
:104E60005200A4E7AFF3008061436F63A787D23F8E
:104E7000B3C8608B288AC63FFB799F501344D33F49
:104E80000000F07F1F8400080000F83F78840008CD
:104E90005084000849840008F10708D5DDE90801BD
:104EA000D7E90023FBF7C8FBCDE9080101357610EF
:104EB0000837002EF0D1DDE90823DDE90001FBF71A
:104EC000E5FCCDE900011AE00225A1E700F0A08091
:104ED000CAF100069F4BA04F06F00F0203EBC2037E
:104EE000D3E90023DDE91001FBF7A6FBCDE90001C2
:104EF000361100230225002E7FD1002BE1D10F9B1C
:104F0000002B00F08780DDE900670022934B3046DC
:104F10003946FBF703FE00287CD0B9F1000F79D0A9
:104F2000029B002B35DD0AF1FF330893394600223E
:104F30008B4B3046FBF780FBCDE90001029F01352A
:104F40002846FBF70FFBDDE90023FBF775FB00228A
:104F5000844BFBF7BBF90546A1F15076002F5DD1DC
:104F60000022814BDDE90001FBF7AEF92A4633460A
:104F7000CDE90001FBF7F0FD002840F088822A46C9
:104F800006F10043DDE90001FBF7C8FD002840F011
:104F90007C82DDE91023CDE90023159B002BC0F2B4
:104FA0005081BAF10E0F00F34C816A4B03EBCA0338
:104FB00093ED007B0B9B002B8DED027B80F2D88064
:104FC000B9F1000F00F3D48040F05E820022664BFE
:104FD00051EC170BFBF730FBDDE90023FBF7B2FDCB
:104FE0004F464E46002840F0348231230BF1010534
:104FF0008BF800300AF1010A2FE2F20705D5D7E954
:105000000023FBF719FB013501237610083772E7FF
:10501000022574E7CDF820A04F4691E74D4B03EBF6
:10502000C70353E902010A9B002B47D002460B46F7
:1050300000204E49FBF72AFC2A463346FBF744F989
:10504000CDE90C015D46DDE90001FBF7A5FD064653
:10505000FBF788FA02460B46DDE90001FBF734F95D
:10506000303605F8016BDDE90C23CDE90001FBF7D3
:1050700055FD002863D1DDE9002300203749FBF707
:1050800023F9DDE90C23FBF749FD002840F0B78048
:10509000A5EB0B039F427FF77CAF0022304BDDE98D
:1050A0000C01FBF7C9FA0022CDE90C012C4BDDE91C
:1050B0000001FBF7C1FACDE90001C4E72A463346F7
:1050C000FBF7BAFACDE90C010BEB07055E46DDE90B
:1050D0000001FBF761FD0746FBF744FA3037024653
:1050E0000B46DDE90001FBF7EFF806F8017BAE4265
:1050F000CDE900014FF0000226D11C4BDDE90C0187
:10510000FBF7E4F802460B46DDE90001FBF724FD5E
:10511000002874D1DDE90C2300201449FBF7D4F8F2
:1051200002460B46DDE90001FBF7F8FC00283FF4DE
:1051300030AF15F8013C302B05F1FF3202D0DDF81D
:1051400020A04AE01546F4E7054BFBF775FACDE9D8
:105150000001BCE778840008508400080000F03F9C
:105160000000244000001C40000014400000E03F0C
:10517000DDE900675D46DDE9022330463946FBF78D
:1051800085FBFBF709FD8046FBF7ECF9DDE902231F
:10519000FBF752FA02460B463046394608F1300614
:1051A000FBF792F805F8016BA5EB0B06B14502463B
:1051B0000B4639D1FBF78AF8DDE9022306460F4694
:1051C000FBF7CAFCC8B9DDE9022330463946FBF7D4
:1051D0009BFC10B118F0010F0FD10499204600F08C
:1051E000CCFF0023129A2B700AF101031360219B5C
:1051F000002B3FF4FFAC1D60FCE4CDF820A015F8B7
:10520000012C392A05F1FF3308D19B450AD1089BAF
:105210000133089330238BF800305B461A78013253
:105220001A708CE71D46EAE700229B4BFBF704FA55
:105230000022002306460F46FBF766FC00289AD0A2
:10524000CBE70A9A002A00F08B80069A012A6EDCCE
:10525000139A002A67D003F23343079F059D059AEE
:1052600001211A4420460592984401F018F8064698
:10527000002D0CDDB8F1000F09DD4545059A2B46E0
:10528000A8BF4346D21A0592ED1AA8EB0308079B64
:10529000EBB10A9B002B67D08FB131463A462046CE
:1052A00001F09CF8049A01460646204601F000F8F9
:1052B00004990890204600F060FF089B0493079B28
:1052C000DA1B04D00499204601F088F804900121EB
:1052D000204600F0E4FF0E9B0746002B00F0CF8134
:1052E0001A460146204601F079F8069B012B074635
:1052F00040DC009B002B39D1019BC3F31303002B2F
:1053000036D1019B23F000431B0D1B052BB1059BE0
:105310000133059308F10108012307930E9B002B2D
:105320002AD1012030E0149BC3F1360395E7079B97
:1053300009F1FF37BB42BFBF079B0797FA1A0E9BC5
:10534000BBBF9B180E93DF1B0027B9F1000FB5BF41
:10535000059B059DA3EB09054B46B8BF00237EE7DF
:10536000079F059D0A9E83E7079AABE70023D4E7D2
:10537000009BD2E7002307933B6907EB830318697F
:1053800000F03FFFC0F12000404410F01F0047D064
:10539000C0F12003042B3BDD059BC0F11C0003443E
:1053A000059305448044059B002B05DD1A460499AE
:1053B000204601F053F80490B8F1000F05DD39469E
:1053C0004246204601F04AF807460F9B53B3394640
:1053D000049801F097F8002824DA00230A2204999F
:1053E000204600F0D3FE0A9B04900AF1FF3A002BFE
:1053F00000F04C81002331460A22204600F0C6FE10
:10540000029B002B06464FDC069B022B4CDD11E075
:10541000C9D0059A1C331A4405921D449844C2E72A
:105420000346F6E7B9F1000F38DC069B022B35DDA9
:10543000CDF80890029B63B939460522204600F05A
:10544000A5FE01460746049801F05CF800283FF7E6
:10545000CCAD0B9B5D466FEA030A4FF0000939465D
:10546000204600F08AFE002E3FF4B7AEB9F1000FDF
:1054700005D0B14503D04946204600F07EFE3146B6
:10548000204600F07AFEA8E600273E46E1E7DDF878
:1054900020A03E46A9E500BF000024400A9BCDF8AD
:1054A0000890002B00F0F980002D05DD31462A46DA
:1054B000204600F0D3FF0646079B002B4CD07168B6
:1054C000204600F035FE326902320546920006F1B0
:1054D0000C010C3000F014FE01222946204600F099
:1054E000BDFF009BCDF814B003F00103B146079354
:1054F000064639460498FFF7B5FA4946054600F1D5
:105500003008049800F0FEFF3246009039462046ED
:1055100001F012F8C368024603BB014608900498E4
:1055200000F0F0FF089A034611462046089300F069
:1055300024FE089BA3B9069A92B9079A82B9B8F1DA
:10554000390F29D0009B002B01DD05F13108059BA7
:105550005D1C83F8008082E73046C2E70123E3E761
:10556000009A002A04DB25D1069A1ABB079A0ABBC7
:10557000002BECDD01220499204600F06FFF394634
:10558000049000F0BFFF002803DCE0D118F0010F09
:10559000DDD0B8F1390FD8D1059B059A5D1C3923B0
:1055A000137015F8013C392B05F1FF324FD0013350
:1055B000137054E7059A002B02F1010506DDB8F1DE
:1055C000390FE9D008F10108059BC2E7029A05F8F6
:1055D000018CA5EB0B03934221D000230A220499EE
:1055E000204600F0D3FDB14504904FF000034FF08A
:1055F0000A024946204605D100F0C8FD814606460C
:10560000059576E700F0C2FD3146814600230A2267
:10561000204600F0BBFD0646F2E74FF000090122EC
:105620000499204600F01AFF3946049000F06AFF02
:105630000028B6DC02D118F0010FB2D115F8013CF8
:10564000302B05F1FF327FF40AAF1546F6E793459C
:1056500005D131230AF1010A8BF80030FFE6154627
:105660009FE7DFF864B0FFF7C5BA219BDFF85CB0B5
:10567000002B3FF4BFAA0BF10803FFF7B9BA069B52
:10568000012B7FF736AE0E9B07934AE6029B002B59
:1056900003DC069B022B3FF7CDAE5D4639460498EE
:1056A000FFF7E0F900F1300805F8018B029AA5EB4D
:1056B0000B039A42B1DD00230A220499204600F030
:1056C00065FD0490EAE700BF1E84000840840008DE
:1056D000B1F90C2093B22DE9F041054618070C46AC
:1056E0005FD44B6842F40062002B8A8105DCCB6BEF
:1056F000002B02DC0020BDE8F081A66A002EF9D064
:10570000002312F480522F68E1692B6036D0206D9F
:10571000A3895A0705D56368C01A236B0BB1E36BE5
:10572000C01A00230246A66AE1692846B047431C16
:10573000A38906D129681D294CD82B4ACA40D6070F
:1057400048D523F400631BB200226260D9042269A9
:10575000A381226004D5421C01D12B6803B92065C6
:10576000216B2F600029C5D004F14003994202D07B
:10577000284600F037F900202063BCE701232846C3
:10578000B047411CC4D12B68002BC1D01D2B01D0C8
:10579000162B01D12F60ADE7A38943F04003A3810D
:1057A000A9E70F69002FA5D09B070E6808BF4B69BA
:1057B0000F6018BF0023A6EB07088B60B8F1000F3D
:1057C00098DD43463A46E169666A2846B0470028B4
:1057D00006DCA38943F04003A3814FF0FF308AE742
:1057E0000744A8EB0008E9E70100402038B50C4663
:1057F000054618B1836B0BB900F064F8B4F90C00DE
:10580000B8B1636EDB0704D4810502D4A06D00F04B
:10581000D3F928462146FFF75BFF636EDA0705469A
:1058200005D4A3899B0502D4A06D00F0C6F92846D3
:1058300038BD0546FBE70000002310B50446C0E96B
:105840000033836081814366C281C0E90433836190
:10585000194608225C30FDF7CFFD074B2362074B4A
:105860006362074BA362074BE461E36204F15800F3
:10587000BDE8104000F09EB91D6700083F670008B2
:10588000776700089B670008014900F067B900BF0F
:1058900099690008014800F08FB900BF880F002007
:1058A000014800F08AB900BF880F0020014800F0CD
:1058B00083B900BF830F0020014800F07EB900BF0C
:1058C000830F002010B50446FFF7F0FFA26B1AB15A
:1058D000BDE81040FFF7F0BF0D4BE3630323C4F8AE
:1058E000E43204F53B73C4F8E832C4F8E022042142
:1058F0006068FFF7A1FF01220921A068FFF79CFF64
:1059000002221221E068FFF797FF0123A363DFE77C
:105910008958000838B5074D074C641BA4101CB902
:10592000BDE8384002F004BD013C55F824309847EA
:10593000F5E700BF40880008448800082DE9F041E1
:10594000054608200C4600F041FF234F80462846BC
:1059500000F0E2FBBB685E6826F00306341B113CD6
:105960004444B4FBF8F4013C08FB04F4A04505DD15
:10597000284600F0D7FB0020BDE8F0810021284632
:1059800000F0BCFEBB6833449842F1D16142284626
:1059900000F0B4FE013010D10021284600F0AEFE28
:1059A000BA68831A0F2BE3DD0C490968401A0C49C9
:1059B00043F0010308605360DAE7BB68084A361B0E
:1059C00046F001065E60136828461C1B146000F058
:1059D000A9FB0120D0E700BF3C04002044080020C0
:1059E000140A00202DE9F04104468846002900F001
:1059F000AB8000F091FB58F8042C544D22F00100CC
:105A0000A8F108031F18A9687E68B94226F00306AA
:105A100002F001021BD130443AB958F8082C9B1A05
:105A20001044D3E90212CA60916040F001025A604A
:105A3000AB60474B1B68834204D8464B204619682D
:105A4000FFF77CFF2046BDE8F04100F06BBB7E60B5
:105A5000002A39D158F8081C5B1A0844996805F1E6
:105A6000080C614532D0D3F80CC0C1F80CC0CCF89A
:105A70000810B9194968C9070AD43044B9683ABB53
:105A8000354EB14224D1C5E90433C3E902110122E4
:105A900040F0010159601850002AD3D1B0F5007FC1
:105AA0001AD2C008811001228A40696801300A4375
:105AB0006A6055F8301005EBC002083AC3E90212DB
:105AC00045F83030CB60BDE70022D2E70122D0E7B5
:105AD000FE68CE60B160DBE7420A042A13D882096F
